{
  "abi": [
    {
      "inputs": [
        {
          "internalType": "address",
          "name": "_fileStore",
          "type": "address"
        }
      ],
      "stateMutability": "nonpayable",
      "type": "constructor"
    },
    {
      "inputs": [
        {
          "components": [
            {
              "internalType": "uint256",
              "name": "id",
              "type": "uint256"
            },
            {
              "internalType": "uint256",
              "name": "seed",
              "type": "uint256"
            },
            {
              "internalType": "uint256",
              "name": "pres",
              "type": "uint256"
            },
            {
              "internalType": "string",
              "name": "ar",
              "type": "string"
            },
            {
              "internalType": "address",
              "name": "wal",
              "type": "address"
            },
            {
              "internalType": "uint8",
              "name": "inv",
              "type": "uint8"
            },
            {
              "internalType": "uint8",
              "name": "lvl",
              "type": "uint8"
            },
            {
              "internalType": "uint8",
              "name": "asc",
              "type": "uint8"
            }
          ],
          "internalType": "struct Params",
          "name": "_params",
          "type": "tuple"
        }
      ],
      "name": "uri",
      "outputs": [
        {
          "internalType": "string",
          "name": "",
          "type": "string"
        }
      ],
      "stateMutability": "view",
      "type": "function"
    }
  ],
  "bytecode": {
    "object": "0x6102e060405261022c6080818152906200287a60a03960019062000024908262000120565b503480156200003257600080fd5b5060405162002aa638038062002aa68339810160408190526200005591620001ec565b600080546001600160a01b0319166001600160a01b03929092169190911790556200021e565b634e487b7160e01b600052604160045260246000fd5b600181811c90821680620000a657607f821691505b602082108103620000c757634e487b7160e01b600052602260045260246000fd5b50919050565b601f8211156200011b57600081815260208120601f850160051c81016020861015620000f65750805b601f850160051c820191505b81811015620001175782815560010162000102565b5050505b505050565b81516001600160401b038111156200013c576200013c6200007b565b62000154816200014d845462000091565b84620000cd565b602080601f8311600181146200018c5760008415620001735750858301515b600019600386901b1c1916600185901b17855562000117565b600085815260208120601f198616915b82811015620001bd578886015182559484019460019091019084016200019c565b5085821015620001dc5787850151600019600388901b60f8161c191681555b5050505050600190811b01905550565b600060208284031215620001ff57600080fd5b81516001600160a01b03811681146200021757600080fd5b9392505050565b61264c806200022e6000396000f3fe608060405234801561001057600080fd5b506004361061002b5760003560e01c8063f9cabb0914610030575b600080fd5b61004361003e3660046111d9565b610059565b60405161005091906112cd565b60405180910390f35b60606100f261006b8360000151610118565b600161007d856020015160001b61017a565b610086866101b9565b61008f876101e7565b6040516020016100a395949392919061133a565b604080517fffffffffffffffffffffffffffffffffffffffffffffffffffffffffffffffe0818403018152908290526100de916020016114f7565b6040516020818303038152906040526103b2565b6040516020016101029190611513565b6040516020818303038152906040529050919050565b60606080604051019050602081016040526000815280600019835b928101926030600a8206018453600a9004806101335750508190037fffffffffffffffffffffffffffffffffffffffffffffffffffffffffffffffe0909101908152919050565b60606000610187836103c6565b9050610192816103b2565b6040516020016101a29190611558565b604051602081830303815290604052915050919050565b60606101d76101c783610438565b6040516020016100a3919061159d565b60405160200161010291906116a1565b606060006101fb8360c0015160ff16610118565b6102088460400151610118565b604051602001610219929190611733565b604051602081830303815290604052905060008360a0015160ff161161025e578060405160200161024a919061182f565b60405160208183030381529060405261027f565b8060405160200161026f9190611896565b6040516020818303038152906040525b90506001836060015151116102b3578060405160200161029f91906118fd565b6040516020818303038152906040526102d4565b806040516020016102c49190611964565b6040516020818303038152906040525b60e084015190915060ff161561030757806040516020016102f591906119cb565b60405160208183030381529060405290505b82516103e81180156103245750825161032290606f90611a61565b155b1561035a57806103378460000151610118565b604051602001610348929190611a75565b60405160208183030381529060405290505b82516103699061045790611a61565b6000036103a1578061037e8460000151610118565b60405160200161038f929190611b1e565b60405160208183030381529060405290505b806040516020016101a29190611bc7565b60606103c08260008061064f565b92915050565b60606103d0610752565b6103db836000610833565b6103e6846001610833565b6103f1856002610833565b6103fc866003610833565b610407876004610833565b61040f6109bb565b61041889610a61565b610420610e95565b60405160200161010299989796959493929190611c08565b6000546040517fe0876aa800000000000000000000000000000000000000000000000000000000815260206004820152601360248201527f70352d76312e352e302e6d696e2e6a732e677a0000000000000000000000000060448201526060916105279173ffffffffffffffffffffffffffffffffffffffff9091169063e0876aa8906064015b600060405180830381865afa1580156104dc573d6000803e3d6000fd5b505050506040513d6000823e601f3d9081017fffffffffffffffffffffffffffffffffffffffffffffffffffffffffffffffe01682016040526105229190810190611cc9565b610f16565b6000546040517fe0876aa800000000000000000000000000000000000000000000000000000000815260206004820152601660248201527f67756e7a6970536372697074732d302e302e312e6a730000000000000000000060448201526105ad9173ffffffffffffffffffffffffffffffffffffffff169063e0876aa8906064016104bf565b6105b684610f7d565b6000546040517fe0876aa800000000000000000000000000000000000000000000000000000000815260206004820152600260248201527f3a29000000000000000000000000000000000000000000000000000000000000604482015261063c9173ffffffffffffffffffffffffffffffffffffffff169063e0876aa8906064016104bf565b6040516020016101029493929190611dd7565b60608351801561074a576003600282010460021b60405192507f4142434445464748494a4b4c4d4e4f505152535455565758595a616263646566601f526102308515027f6768696a6b6c6d6e6f707172737475767778797a303132333435363738392d5f03603f52602083018181015b6003880197508751603f8160121c1651600053603f81600c1c1651600153603f8160061c1651600253603f8116516003535060005182526004820191508082106106bf576020016040527f3d3d000000000000000000000000000000000000000000000000000000000000600384066002048083039190915260008615159091029182900352900382525b509392505050565b606060405160200161081f907f3c737667206865696768743d22323530222077696474683d223235302220786d81527f6c6e733d22687474703a2f2f7777772e77332e6f72672f323030302f7376672260208201527f3e0000000000000000000000000000000000000000000000000000000000000060408201527f3c646566733e000000000000000000000000000000000000000000000000000060418201527f3c72616469616c4772616469656e742069643d226d794772616469656e74223e604782015260670190565b604051602081830303815290604052905090565b60606000610858610845846014611fd0565b610850906005611ff3565b60ff16610118565b61088b85610867866006611fd0565b610872906000611ff3565b60ff16602081106108855761088561200c565b1a610118565b6108a58661089a876006611fd0565b610872906001611ff3565b6108bf876108b4886006611fd0565b610872906002611ff3565b6040516020016108d2949392919061203b565b604080517fffffffffffffffffffffffffffffffffffffffffffffffffffffffffffffffe08184030181529190529050600061091d610912856014611fd0565b61085090600f611ff3565b6109378661092c876006611fd0565b610872906003611ff3565b61095187610946886006611fd0565b610872906004611ff3565b61096b88610960896006611fd0565b610872906005611ff3565b60405160200161097e949392919061203b565b604051602081830303815290604052905081816040516020016109a2929190612143565b6040516020818303038152906040529250505092915050565b6040517f3c2f72616469616c4772616469656e743e00000000000000000000000000000060208201527f3c2f646566733e0000000000000000000000000000000000000000000000000060318201527f3c72656374206865696768743d22323530222077696474683d2232353022206660388201527f696c6c3d2223303030223e3c2f726563743e00000000000000000000000000006058820152606090606a0161081f565b6040805161024081018252600861020082018181527f262331303639363b00000000000000000000000000000000000000000000000061022084015282528251808401845260078082527f2623393733373b0000000000000000000000000000000000000000000000000060208084019190915280850192909252845180860186528181527f2623383835333b0000000000000000000000000000000000000000000000000081840152848601528451808601865260098082527f26233132383834323b000000000000000000000000000000000000000000000082850152606080870192909252865180880188528581527f262331303032333b000000000000000000000000000000000000000000000000818601526080870152865180880188528381527f2623393637323b000000000000000000000000000000000000000000000000008186015260a0870152865180880188528581527f262331303037303b0000000000000000000000000000000000000000000000008186015260c0870152865180880188528581527f262331303830333b0000000000000000000000000000000000000000000000008186015260e0870152865180880188528581527f262331303034303b00000000000000000000000000000000000000000000000081860152610100870152865180880188529485527f262331303035373b00000000000000000000000000000000000000000000000085850152610120860194909452855180870187529384527f26233132383737393b000000000000000000000000000000000000000000000084840152610140850193909352845180860186528181527f2623393838333b0000000000000000000000000000000000000000000000000081840152610160850152845180860186528181527f2623383235383b0000000000000000000000000000000000000000000000000081840152610180850152845180860186528181527f2623393733383b00000000000000000000000000000000000000000000000000818401526101a0850152845180860186528181527f2623393835343b00000000000000000000000000000000000000000000000000818401526101c0850152845180860190955284527f2623383537383b00000000000000000000000000000000000000000000000000908401526101e0820192909252600081600f851660108110610de157610de161200c565b60200201519050600082610df9601060f08816612172565b60ff1660108110610e0c57610e0c61200c565b6020020151905060008386601e1a600f1660108110610e2d57610e2d61200c565b60200201519050600084610e496010601e8a901a60f016612172565b60ff1660108110610e5c57610e5c61200c565b6020020151905083838383604051602001610e7a9493929190612194565b60405160208183030381529060405295505050505050919050565b606060405160200161081f907f3c636972636c652063783d22313235222063793d223132352220723d2231303081527f222066696c6c3d2275726c2827236d794772616469656e74272922202f3e000060208201527f3c2f7376673e0000000000000000000000000000000000000000000000000000603e82015260440190565b60208082015180516040519260008080805b85811015610f5e57602081026020018701519250602083015191506001823b039350836001868a01843c93830193600101610f28565b50505050602081038452601f19601f8201168401604052505050919050565b606061102a610fa1661fffffffffffff8460200151610f9c9190611a61565b610118565b610faa42610118565b8460600151610fe4661fffffffffffff8760800151610fc991906123f0565b73ffffffffffffffffffffffffffffffffffffffff16610118565b610ff48760a0015160ff16610118565b6110048860c0015160ff16610118565b6110148960e0015160ff16610118565b6040516020016100a39796959493929190612423565b60405160200161010291906125d8565b7f4e487b7100000000000000000000000000000000000000000000000000000000600052604160045260246000fd5b604051610100810167ffffffffffffffff8111828210171561108d5761108d61103a565b60405290565b6040805190810167ffffffffffffffff8111828210171561108d5761108d61103a565b604051601f82017fffffffffffffffffffffffffffffffffffffffffffffffffffffffffffffffe016810167ffffffffffffffff811182821017156110fd576110fd61103a565b604052919050565b600082601f83011261111657600080fd5b813567ffffffffffffffff8111156111305761113061103a565b61116160207fffffffffffffffffffffffffffffffffffffffffffffffffffffffffffffffe0601f840116016110b6565b81815284602083860101111561117657600080fd5b816020850160208301376000918101602001919091529392505050565b73ffffffffffffffffffffffffffffffffffffffff811681146111b557600080fd5b50565b80356111c381611193565b919050565b803560ff811681146111c357600080fd5b6000602082840312156111eb57600080fd5b813567ffffffffffffffff8082111561120357600080fd5b90830190610100828603121561121857600080fd5b611220611069565b82358152602083013560208201526040830135604082015260608301358281111561124a57600080fd5b61125687828601611105565b606083015250611268608084016111b8565b608082015261127960a084016111c8565b60a082015261128a60c084016111c8565b60c082015261129b60e084016111c8565b60e082015295945050505050565b60005b838110156112c45781810151838201526020016112ac565b50506000910152565b60208152600082518060208401526112ec8160408501602087016112a9565b601f017fffffffffffffffffffffffffffffffffffffffffffffffffffffffffffffffe0169190910160400192915050565b600081516113308185602086016112a9565b9290920192915050565b7f7b226e616d65223a223e3e3e2000000000000000000000000000000000000000815260008651602061137382600d8601838c016112a9565b7f203c3c3c222c0000000000000000000000000000000000000000000000000000600d928501928301528754601390600090600181811c90808316806113ba57607f831692505b86831081036113f0577f4e487b710000000000000000000000000000000000000000000000000000000085526022600452602485fd5b808015611404576001811461143b5761146c565b7fffffffffffffffffffffffffffffffffffffffffffffffffffffffffffffff008516878a01528684151585028a0101955061146c565b60008f81526020902060005b858110156114625781548b82018a0152908401908901611447565b505086848a010195505b505050505061149a817f22696d616765223a2200000000000000000000000000000000000000000000009052565b6114a7600982018a61131e565b93505050506114d5817f222c0000000000000000000000000000000000000000000000000000000000009052565b6114eb6114e5600283018761131e565b8561131e565b98975050505050505050565b600082516115098184602087016112a9565b9190910192915050565b7f646174613a6170706c69636174696f6e2f6a736f6e3b6261736536342c00000081526000825161154b81601d8501602087016112a9565b91909101601d0192915050565b7f646174613a696d6167652f7376672b786d6c3b6261736536342c00000000000081526000825161159081601a8501602087016112a9565b91909101601a0192915050565b7f3c21444f43545950452068746d6c3e3c68746d6c207374796c653d226865696781527f68743a20313030253b223e3c686561643e0000000000000000000000000000006020820152600082516115fb8160318501602087016112a9565b7f3c2f686561643e3c626f6479207374796c653d226d617267696e3a20303b646960319390910192830152507f73706c61793a20666c65783b6a7573746966792d636f6e74656e743a2063656e60518201527f7465723b616c69676e2d6974656d733a2063656e7465723b6865696768743a2060718201527f313030253b223e3c2f626f64793e3c2f68746d6c3e0000000000000000000000609182015260a601919050565b7f22616e696d6174696f6e5f75726c223a22646174613a746578742f68746d6c3b81527f6261736536342c000000000000000000000000000000000000000000000000006020820152600082516116ff8160278501602087016112a9565b7f222c0000000000000000000000000000000000000000000000000000000000006027939091019283015250602901919050565b7f2261747472696275746573223a205b7b2274726169745f74797065223a20224481527f65636179222c202276616c7565223a20000000000000000000000000000000006020820152600083516117918160308501602088016112a9565b80830190507f7d2c2000000000000000000000000000000000000000000000000000000000008060308301527f7b22646973706c61795f74797065223a20226e756d626572222c22747261697460338301527f5f74797065223a20225072657374696765222c202276616c7565223a200000006053830152845161181c8160708501602089016112a9565b6070920191820152607301949350505050565b600082516118418184602087016112a9565b7f7b2274726169745f74797065223a20225370696e222c202276616c7565223a209201918252507f22446f776e227d2c0000000000000000000000000000000000000000000000006020820152602801919050565b600082516118a88184602087016112a9565b7f7b2274726169745f74797065223a20225370696e222c202276616c7565223a209201918252507f225570227d2c00000000000000000000000000000000000000000000000000006020820152602601919050565b6000825161190f8184602087016112a9565b7f7b2274726169745f74797065223a2022507269736d222c202276616c7565223a9201918252507f20224f726967696e616c227d00000000000000000000000000000000000000006020820152602c01919050565b600082516119768184602087016112a9565b7f7b2274726169745f74797065223a2022507269736d222c202276616c7565223a9201918252507f2022416476616e636564227d00000000000000000000000000000000000000006020820152602c01919050565b600082516119dd8184602087016112a9565b7f2c207b2274726169745f74797065223a20225b52454441435445445d222c20229201918252507f76616c7565223a20225b52454441435445445d227d00000000000000000000006020820152603501919050565b7f4e487b7100000000000000000000000000000000000000000000000000000000600052601260045260246000fd5b600082611a7057611a70611a32565b500690565b60008351611a878184602088016112a9565b80830190507f2c207b2274726169745f74797065223a2022416e67656c222c202276616c756581527f223a20220000000000000000000000000000000000000000000000000000000060208201528351611ae88160248401602088016112a9565b7f227d00000000000000000000000000000000000000000000000000000000000060249290910191820152602601949350505050565b60008351611b308184602088016112a9565b80830190507f2c207b2274726169745f74797065223a2022487970657220416e67656c222c2081527f2276616c7565223a20220000000000000000000000000000000000000000000060208201528351611b9181602a8401602088016112a9565b7f227d000000000000000000000000000000000000000000000000000000000000602a9290910191820152602c01949350505050565b60008251611bd98184602087016112a9565b7f5d7d000000000000000000000000000000000000000000000000000000000000920191825250600201919050565b60008a51611c1a818460208f016112a9565b8a51611c2c8183860160208f016112a9565b8a519184010190611c41818360208e016112a9565b8951611c538183850160208e016112a9565b8951929091010190611c69818360208c016112a9565b8751611c7b8183850160208c016112a9565b8751929091010190611c91818360208a016112a9565b8551611ca38183850160208a016112a9565b8551929091010190611cb98183602088016112a9565b019b9a5050505050505050505050565b60006020808385031215611cdc57600080fd5b825167ffffffffffffffff80821115611cf457600080fd5b81850191506040808388031215611d0a57600080fd5b611d12611093565b835181528484015183811115611d2757600080fd5b80850194505087601f850112611d3c57600080fd5b835183811115611d4e57611d4e61103a565b611d5c868260051b016110b6565b818152868101945060069190911b850186019089821115611d7c57600080fd5b948601945b81861015611dc55783868b031215611d995760008081fd5b611da1611093565b8651815287870151611db281611193565b8189015285529483019493860193611d81565b95820195909552979650505050505050565b7f3c73637269707420747970653d22746578742f6a6176617363726970742b677a81527f697022207372633d22646174613a746578742f6a6176617363726970743b626160208201527f736536342c000000000000000000000000000000000000000000000000000000604082015260008551611e5b816045850160208a016112a9565b7f223e3c2f7363726970743e00000000000000000000000000000000000000000060459184019182018190527f3c736372697074207372633d22646174613a746578742f6a617661736372697060508301527f743b6261736536342c000000000000000000000000000000000000000000000060708301526079820191508651611ee9818460208b016112a9565b919091019081528451611f0381600b8401602089016112a9565b7f223e3c2f7363726970743e3c736372697074207372633d22646174613a746578600b92909101918201527f742f6a6176617363726970743b6261736536342c000000000000000000000000602b8201528351611f6781603f8401602088016112a9565b01611f94603f82017f223e3c2f7363726970743e0000000000000000000000000000000000000000009052565b604a019695505050505050565b7f4e487b7100000000000000000000000000000000000000000000000000000000600052601160045260246000fd5b60ff8181168382160290811690818114611fec57611fec611fa1565b5092915050565b60ff81811683821601908111156103c0576103c0611fa1565b7f4e487b7100000000000000000000000000000000000000000000000000000000600052603260045260246000fd5b7f3c73746f70206f66667365743d2200000000000000000000000000000000000081526000855161207381600e850160208a016112a9565b7f25222073746f702d636f6c6f723d227267622800000000000000000000000000600e9184019182015285516120b0816021840160208a016112a9565b8082019150507f2c0000000000000000000000000000000000000000000000000000000000000080602183015285516120f0816022850160208a016112a9565b6022920191820152835161210b8160238401602088016112a9565b7f2922202f3e000000000000000000000000000000000000000000000000000000602392909101918201526028019695505050505050565b600083516121558184602088016112a9565b8351908301906121698183602088016112a9565b01949350505050565b600060ff83168061218557612185611a32565b8060ff84160491505092915050565b60007f3c746578742066696c6c3d22236666666666662220666f6e742d73697a653d228083527f33302220666f6e742d66616d696c793d2256657264616e612220783d2233322260208401527f20793d2234322220746578742d616e63686f723d226d6964646c65223e0000006040840152865161221981605d860160208b016112a9565b80840190507f3c2f746578743e0000000000000000000000000000000000000000000000000080605d8301528260648301527f33302220666f6e742d66616d696c793d2256657264616e612220783d2232313860848301527f2220793d2234322220746578742d616e63686f723d226d6964646c65223e000060a4830152875192506122ac8360c2840160208b016112a9565b910160c28101919091527f3c746578742066696c6c3d22236666666666662220666f6e742d73697a653d2260c98201527f33302220666f6e742d66616d696c793d2256657264616e612220783d2233322260e98201527f20793d223232382220746578742d616e63686f723d226d6964646c65223e00006101098201526123e56123416123df61236a8261012786018a61131e565b7f3c2f746578743e00000000000000000000000000000000000000000000000000815260070190565b7f3c746578742066696c6c3d22236666666666662220666f6e742d73697a653d2281527f33302220666f6e742d66616d696c793d2256657264616e612220783d2232313860208201527f2220793d223232382220746578742d616e63686f723d226d6964646c65223e006040820152605f0190565b8661131e565b979650505050505050565b600073ffffffffffffffffffffffffffffffffffffffff8084168061241757612417611a32565b92169190910692915050565b7f6c65742073656564203d2000000000000000000000000000000000000000000081526000885161245b81600b850160208d016112a9565b7f3b206c65742074696d203d200000000000000000000000000000000000000000600b918401918201528851612498816017840160208d016112a9565b7f3b206c6574206172203d200000000000000000000000000000000000000000006017929091019182015287516124d6816022840160208c016112a9565b7f3b206c65742077616c203d2000000000000000000000000000000000000000006022929091019182015261250e602e82018861131e565b7f3b206c657420696e76203d20000000000000000000000000000000000000000081529050612540600c82018761131e565b7f3b206c6574206c766c203d20000000000000000000000000000000000000000081529050612572600c82018661131e565b7f3b206c657420617363203d200000000000000000000000000000000000000000815290506125a4600c82018561131e565b7f3b0000000000000000000000000000000000000000000000000000000000000081526001019a9950505050505050505050565b7f3c736372697074207372633d22646174613a746578742f6a617661736372697081527f743b6261736536342c0000000000000000000000000000000000000000000000602082015260006029820183516126378183602088016112a9565b01939250505056fea164736f6c6343000814000a226465736372697074696f6e223a22496e206120666172206177617920706172616c6c656c20756e69766572736520616e20616476616e63656420636976696c697a6174696f6e206275696c74206120636f6d70757465722061726f756e642061207374617220616e64206573636170656420696e746f20612073696d756c61746564207265616c6974792e20416674657220736f6d6520696d6d656173757261626c6520616d6f756e74206f662074696d65207468657365206661637473207765726520666f72676f7474656e20616e6420616674657220616e6f7468657220696d6d656173757261626c6520616d6f756e74206f662074696d652074686174207374617220626567616e20746f206469652e204576656e20736f2c206c69666520496e7369646520746869732073696d756c6174696f6e2070726f677265737365642c20616e64206f6e206f6e6520706c616e657420736f6d65206f662074686174206c6966652070726f6772657373656420656e6f75676820746f20666f726d206120676f7665726e6d656e742e20596f752061726520746865206e6577206d656d626572206f662061206d7973746572696f75732070726f6a65637420756e646572206120736563726574206167656e6379206f66207468697320676f7665726e6d656e74207265736561726368696e672074686520656c656d656e74617279207061727469636c65732074686174206d616b6520757020796f757220756e6976657273652e222c",
    "linkReferences": {}
  },
  "methodIdentifiers": {
    "uri((uint256,uint256,uint256,string,address,uint8,uint8,uint8))": "f9cabb09"
  },
  "id": 37
}