{
  "abi": [
    {
      "inputs": [
        {
          "internalType": "address",
          "name": "_fileStore",
          "type": "address"
        },
        {
          "internalType": "address",
          "name": "_owner",
          "type": "address"
        },
        {
          "internalType": "uint256",
          "name": "_startTime",
          "type": "uint256"
        }
      ],
      "stateMutability": "nonpayable",
      "type": "constructor"
    },
    {
      "anonymous": false,
      "inputs": [
        {
          "indexed": true,
          "internalType": "address",
          "name": "owner",
          "type": "address"
        },
        {
          "indexed": true,
          "internalType": "address",
          "name": "spender",
          "type": "address"
        },
        {
          "indexed": true,
          "internalType": "uint256",
          "name": "id",
          "type": "uint256"
        }
      ],
      "name": "Approval",
      "type": "event"
    },
    {
      "anonymous": false,
      "inputs": [
        {
          "indexed": true,
          "internalType": "address",
          "name": "owner",
          "type": "address"
        },
        {
          "indexed": true,
          "internalType": "address",
          "name": "operator",
          "type": "address"
        },
        {
          "indexed": false,
          "internalType": "bool",
          "name": "approved",
          "type": "bool"
        }
      ],
      "name": "ApprovalForAll",
      "type": "event"
    },
    {
      "anonymous": false,
      "inputs": [
        {
          "indexed": true,
          "internalType": "address",
          "name": "from",
          "type": "address"
        },
        {
          "indexed": true,
          "internalType": "address",
          "name": "to",
          "type": "address"
        },
        {
          "indexed": true,
          "internalType": "uint256",
          "name": "id",
          "type": "uint256"
        }
      ],
      "name": "Transfer",
      "type": "event"
    },
    {
      "inputs": [],
      "name": "anti",
      "outputs": [
        {
          "internalType": "contract Antigraviton",
          "name": "",
          "type": "address"
        }
      ],
      "stateMutability": "view",
      "type": "function"
    },
    {
      "inputs": [
        {
          "internalType": "address",
          "name": "spender",
          "type": "address"
        },
        {
          "internalType": "uint256",
          "name": "id",
          "type": "uint256"
        }
      ],
      "name": "approve",
      "outputs": [],
      "stateMutability": "nonpayable",
      "type": "function"
    },
    {
      "inputs": [
        {
          "internalType": "address",
          "name": "owner",
          "type": "address"
        }
      ],
      "name": "balanceOf",
      "outputs": [
        {
          "internalType": "uint256",
          "name": "",
          "type": "uint256"
        }
      ],
      "stateMutability": "view",
      "type": "function"
    },
    {
      "inputs": [
        {
          "internalType": "uint256",
          "name": "id",
          "type": "uint256"
        }
      ],
      "name": "claimAnti",
      "outputs": [],
      "stateMutability": "nonpayable",
      "type": "function"
    },
    {
      "inputs": [
        {
          "internalType": "uint256",
          "name": "",
          "type": "uint256"
        }
      ],
      "name": "claimed",
      "outputs": [
        {
          "internalType": "uint256",
          "name": "",
          "type": "uint256"
        }
      ],
      "stateMutability": "view",
      "type": "function"
    },
    {
      "inputs": [
        {
          "internalType": "uint256",
          "name": "id",
          "type": "uint256"
        },
        {
          "internalType": "string",
          "name": "signal",
          "type": "string"
        }
      ],
      "name": "collide",
      "outputs": [],
      "stateMutability": "nonpayable",
      "type": "function"
    },
    {
      "inputs": [],
      "name": "currentId",
      "outputs": [
        {
          "internalType": "uint256",
          "name": "",
          "type": "uint256"
        }
      ],
      "stateMutability": "view",
      "type": "function"
    },
    {
      "inputs": [
        {
          "internalType": "uint256",
          "name": "",
          "type": "uint256"
        }
      ],
      "name": "getApproved",
      "outputs": [
        {
          "internalType": "address",
          "name": "",
          "type": "address"
        }
      ],
      "stateMutability": "view",
      "type": "function"
    },
    {
      "inputs": [
        {
          "internalType": "uint256",
          "name": "id",
          "type": "uint256"
        }
      ],
      "name": "invert",
      "outputs": [],
      "stateMutability": "nonpayable",
      "type": "function"
    },
    {
      "inputs": [
        {
          "internalType": "address",
          "name": "",
          "type": "address"
        },
        {
          "internalType": "address",
          "name": "",
          "type": "address"
        }
      ],
      "name": "isApprovedForAll",
      "outputs": [
        {
          "internalType": "bool",
          "name": "",
          "type": "bool"
        }
      ],
      "stateMutability": "view",
      "type": "function"
    },
    {
      "inputs": [
        {
          "internalType": "uint256",
          "name": "",
          "type": "uint256"
        }
      ],
      "name": "level",
      "outputs": [
        {
          "internalType": "uint8",
          "name": "",
          "type": "uint8"
        }
      ],
      "stateMutability": "view",
      "type": "function"
    },
    {
      "inputs": [
        {
          "internalType": "uint256",
          "name": "_amount",
          "type": "uint256"
        }
      ],
      "name": "mint",
      "outputs": [],
      "stateMutability": "payable",
      "type": "function"
    },
    {
      "inputs": [],
      "name": "name",
      "outputs": [
        {
          "internalType": "string",
          "name": "",
          "type": "string"
        }
      ],
      "stateMutability": "view",
      "type": "function"
    },
    {
      "inputs": [
        {
          "internalType": "uint256",
          "name": "id",
          "type": "uint256"
        },
        {
          "internalType": "uint256[][]",
          "name": "arr",
          "type": "uint256[][]"
        }
      ],
      "name": "observe",
      "outputs": [],
      "stateMutability": "nonpayable",
      "type": "function"
    },
    {
      "inputs": [],
      "name": "owner",
      "outputs": [
        {
          "internalType": "address",
          "name": "",
          "type": "address"
        }
      ],
      "stateMutability": "view",
      "type": "function"
    },
    {
      "inputs": [
        {
          "internalType": "uint256",
          "name": "id",
          "type": "uint256"
        }
      ],
      "name": "ownerOf",
      "outputs": [
        {
          "internalType": "address",
          "name": "owner",
          "type": "address"
        }
      ],
      "stateMutability": "view",
      "type": "function"
    },
    {
      "inputs": [
        {
          "internalType": "uint256",
          "name": "",
          "type": "uint256"
        }
      ],
      "name": "prestige",
      "outputs": [
        {
          "internalType": "uint256",
          "name": "",
          "type": "uint256"
        }
      ],
      "stateMutability": "view",
      "type": "function"
    },
    {
      "inputs": [
        {
          "internalType": "uint256",
          "name": "",
          "type": "uint256"
        }
      ],
      "name": "prism",
      "outputs": [
        {
          "internalType": "string",
          "name": "",
          "type": "string"
        }
      ],
      "stateMutability": "view",
      "type": "function"
    },
    {
      "inputs": [],
      "name": "program",
      "outputs": [
        {
          "internalType": "contract Program",
          "name": "",
          "type": "address"
        }
      ],
      "stateMutability": "view",
      "type": "function"
    },
    {
      "inputs": [
        {
          "internalType": "uint256",
          "name": "",
          "type": "uint256"
        }
      ],
      "name": "redacted",
      "outputs": [
        {
          "internalType": "uint8",
          "name": "",
          "type": "uint8"
        }
      ],
      "stateMutability": "view",
      "type": "function"
    },
    {
      "inputs": [],
      "name": "research",
      "outputs": [
        {
          "internalType": "contract Research",
          "name": "",
          "type": "address"
        }
      ],
      "stateMutability": "view",
      "type": "function"
    },
    {
      "inputs": [
        {
          "internalType": "uint256",
          "name": "tokenId",
          "type": "uint256"
        },
        {
          "internalType": "uint256",
          "name": "salePrice",
          "type": "uint256"
        }
      ],
      "name": "royaltyInfo",
      "outputs": [
        {
          "internalType": "address",
          "name": "",
          "type": "address"
        },
        {
          "internalType": "uint256",
          "name": "",
          "type": "uint256"
        }
      ],
      "stateMutability": "view",
      "type": "function"
    },
    {
      "inputs": [
        {
          "internalType": "address",
          "name": "from",
          "type": "address"
        },
        {
          "internalType": "address",
          "name": "to",
          "type": "address"
        },
        {
          "internalType": "uint256",
          "name": "id",
          "type": "uint256"
        }
      ],
      "name": "safeTransferFrom",
      "outputs": [],
      "stateMutability": "nonpayable",
      "type": "function"
    },
    {
      "inputs": [
        {
          "internalType": "address",
          "name": "from",
          "type": "address"
        },
        {
          "internalType": "address",
          "name": "to",
          "type": "address"
        },
        {
          "internalType": "uint256",
          "name": "id",
          "type": "uint256"
        },
        {
          "internalType": "bytes",
          "name": "data",
          "type": "bytes"
        }
      ],
      "name": "safeTransferFrom",
      "outputs": [],
      "stateMutability": "nonpayable",
      "type": "function"
    },
    {
      "inputs": [
        {
          "internalType": "uint256",
          "name": "",
          "type": "uint256"
        }
      ],
      "name": "seed",
      "outputs": [
        {
          "internalType": "uint256",
          "name": "",
          "type": "uint256"
        }
      ],
      "stateMutability": "view",
      "type": "function"
    },
    {
      "inputs": [
        {
          "internalType": "address",
          "name": "operator",
          "type": "address"
        },
        {
          "internalType": "bool",
          "name": "approved",
          "type": "bool"
        }
      ],
      "name": "setApprovalForAll",
      "outputs": [],
      "stateMutability": "nonpayable",
      "type": "function"
    },
    {
      "inputs": [
        {
          "internalType": "uint256",
          "name": "",
          "type": "uint256"
        }
      ],
      "name": "spin",
      "outputs": [
        {
          "internalType": "uint8",
          "name": "",
          "type": "uint8"
        }
      ],
      "stateMutability": "view",
      "type": "function"
    },
    {
      "inputs": [],
      "name": "startTime",
      "outputs": [
        {
          "internalType": "uint256",
          "name": "",
          "type": "uint256"
        }
      ],
      "stateMutability": "view",
      "type": "function"
    },
    {
      "inputs": [
        {
          "internalType": "bytes4",
          "name": "interfaceId",
          "type": "bytes4"
        }
      ],
      "name": "supportsInterface",
      "outputs": [
        {
          "internalType": "bool",
          "name": "",
          "type": "bool"
        }
      ],
      "stateMutability": "view",
      "type": "function"
    },
    {
      "inputs": [],
      "name": "symbol",
      "outputs": [
        {
          "internalType": "string",
          "name": "",
          "type": "string"
        }
      ],
      "stateMutability": "view",
      "type": "function"
    },
    {
      "inputs": [
        {
          "internalType": "uint256",
          "name": "id",
          "type": "uint256"
        }
      ],
      "name": "tokenURI",
      "outputs": [
        {
          "internalType": "string",
          "name": "",
          "type": "string"
        }
      ],
      "stateMutability": "view",
      "type": "function"
    },
    {
      "inputs": [
        {
          "internalType": "address",
          "name": "from",
          "type": "address"
        },
        {
          "internalType": "address",
          "name": "to",
          "type": "address"
        },
        {
          "internalType": "uint256",
          "name": "id",
          "type": "uint256"
        }
      ],
      "name": "transferFrom",
      "outputs": [],
      "stateMutability": "nonpayable",
      "type": "function"
    },
    {
      "inputs": [
        {
          "internalType": "uint256",
          "name": "id",
          "type": "uint256"
        }
      ],
      "name": "virtualAnti",
      "outputs": [
        {
          "internalType": "uint256",
          "name": "",
          "type": "uint256"
        }
      ],
      "stateMutability": "view",
      "type": "function"
    },
    {
      "inputs": [],
      "name": "withdraw",
      "outputs": [],
      "stateMutability": "nonpayable",
      "type": "function"
    },
    {
      "inputs": [
        {
          "internalType": "uint256",
          "name": "id",
          "type": "uint256"
        }
      ],
      "name": "xe",
      "outputs": [],
      "stateMutability": "nonpayable",
      "type": "function"
    }
  ],
  "bytecode": {
    "object": "0x60e06040523480156200001157600080fd5b506040516200beda3803806200beda8339810160408190526200003491620002e4565b6040518060400160405280600c81526020016b20b733b2b61026b0ba3a32b960a11b81525060405180604001604052806002815260200161414d60f01b8152508160009081620000859190620003ca565b506001620000948282620003ca565b505050604051620000a5906200029d565b604051809103906000f080158015620000c2573d6000803e3d6000fd5b506001600160a01b03166080526040518390620000df90620002ab565b6001600160a01b039091168152602001604051809103906000f0801580156200010c573d6000803e3d6000fd5b506001600160a01b031660a05260405183906200012990620002b9565b6001600160a01b039091168152602001604051809103906000f08015801562000156573d6000803e3d6000fd5b506001600160a01b0390811660c052600880546001600160a01b03191691841691909117905560098190556200018f8261014d62000198565b50505062000496565b6127106001600160601b03821611156200020c5760405162461bcd60e51b815260206004820152602a60248201527f455243323938313a20726f79616c7479206665652077696c6c206578636565646044820152692073616c65507269636560b01b60648201526084015b60405180910390fd5b6001600160a01b038216620002645760405162461bcd60e51b815260206004820152601960248201527f455243323938313a20696e76616c696420726563656976657200000000000000604482015260640162000203565b604080518082019091526001600160a01b039092168083526001600160601b039091166020909201829052600160a01b90910217600655565b6111af806200359a83390190565b614ceb806200474983390190565b612aa6806200943483390190565b80516001600160a01b0381168114620002df57600080fd5b919050565b600080600060608486031215620002fa57600080fd5b6200030584620002c7565b92506200031560208501620002c7565b9150604084015190509250925092565b634e487b7160e01b600052604160045260246000fd5b600181811c908216806200035057607f821691505b6020821081036200037157634e487b7160e01b600052602260045260246000fd5b50919050565b601f821115620003c557600081815260208120601f850160051c81016020861015620003a05750805b601f850160051c820191505b81811015620003c157828155600101620003ac565b5050505b505050565b81516001600160401b03811115620003e657620003e662000325565b620003fe81620003f784546200033b565b8462000377565b602080601f8311600181146200043657600084156200041d5750858301515b600019600386901b1c1916600185901b178555620003c1565b600085815260208120601f198616915b82811015620004675788860151825594840194600190910190840162000446565b5085821015620004865787850151600019600388901b60f8161c191681555b5050505050600190811b01905550565b60805160a05160c0516130aa620004f0600039600081816106d60152611c7d01526000818161036e0152818161107f01526111be01526000818161072a01528181610cb601528181610f0b0152610fe801526130aa6000f3fe6080604052600436106102345760003560e01c806378e9792511610138578063a22cb465116100b0578063c87b56dd1161007f578063dbe7e3bd11610064578063dbe7e3bd1461074c578063e00dd16114610779578063e985e9c51461078f57600080fd5b8063c87b56dd146106f8578063d61eec0f1461071857600080fd5b8063a22cb46514610654578063a5b6ea8f14610674578063b88d4fde146106a4578063c860ebc6146106c457600080fd5b8063948fee001161010757806395d89b41116100ec57806395d89b411461060c578063a053a12914610621578063a0712d681461064157600080fd5b8063948fee00146105af57806395564837146105df57600080fd5b806378e979251461051f57806383c901e314610535578063849ff37d146105625780638da5cb5b1461058257600080fd5b806323b872dd116101cb5780633ccfd60b1161019a5780636352211e1161017f5780636352211e146104b157806370a08231146104d15780637351ee37146104ff57600080fd5b80633ccfd60b1461047c57806342842e0e1461049157600080fd5b806323b872dd146103d05780632a55205a146103f0578063302ae93d1461043c57806336626b841461045c57600080fd5b8063095ea7b311610207578063095ea7b31461033a578063136fe7891461035c5780631f534889146103905780631ff0fa34146103b057600080fd5b806301ffc9a71461023957806305c58df21461026e57806306fdde03146102b0578063081812fc146102d2575b600080fd5b34801561024557600080fd5b50610259610254366004612520565b6107ca565b60405190151581526020015b60405180910390f35b34801561027a57600080fd5b5061029e61028936600461253d565b600d6020526000908152604090205460ff1681565b60405160ff9091168152602001610265565b3480156102bc57600080fd5b506102c56108fb565b60405161026591906125c4565b3480156102de57600080fd5b506103156102ed36600461253d565b60046020526000908152604090205473ffffffffffffffffffffffffffffffffffffffff1681565b60405173ffffffffffffffffffffffffffffffffffffffff9091168152602001610265565b34801561034657600080fd5b5061035a6103553660046125fb565b610989565b005b34801561036857600080fd5b506103157f000000000000000000000000000000000000000000000000000000000000000081565b34801561039c57600080fd5b5061035a6103ab36600461253d565b610ad8565b3480156103bc57600080fd5b5061035a6103cb36600461253d565b610c0b565b3480156103dc57600080fd5b5061035a6103eb366004612625565b610d2c565b3480156103fc57600080fd5b5061041061040b366004612661565b610d90565b6040805173ffffffffffffffffffffffffffffffffffffffff9093168352602083019190915201610265565b34801561044857600080fd5b5061035a610457366004612747565b610e87565b34801561046857600080fd5b506102c561047736600461253d565b6112fe565b34801561048857600080fd5b5061035a611317565b34801561049d57600080fd5b5061035a6104ac366004612625565b6113ab565b3480156104bd57600080fd5b506103156104cc36600461253d565b61140a565b3480156104dd57600080fd5b506104f16104ec3660046127d1565b61149b565b604051908152602001610265565b34801561050b57600080fd5b5061035a61051a36600461253d565b611543565b34801561052b57600080fd5b506104f160095481565b34801561054157600080fd5b506104f161055036600461253d565b600b6020526000908152604090205481565b34801561056e57600080fd5b5061035a61057d366004612810565b611610565b34801561058e57600080fd5b506008546103159073ffffffffffffffffffffffffffffffffffffffff1681565b3480156105bb57600080fd5b5061029e6105ca36600461253d565b600f6020526000908152604090205460ff1681565b3480156105eb57600080fd5b506104f16105fa36600461253d565b600c6020526000908152604090205481565b34801561061857600080fd5b506102c5611878565b34801561062d57600080fd5b506104f161063c36600461253d565b611885565b61035a61064f36600461253d565b6118bd565b34801561066057600080fd5b5061035a61066f366004612923565b611a23565b34801561068057600080fd5b5061029e61068f36600461253d565b600e6020526000908152604090205460ff1681565b3480156106b057600080fd5b5061035a6106bf36600461295f565b611aba565b3480156106d057600080fd5b506103157f000000000000000000000000000000000000000000000000000000000000000081565b34801561070457600080fd5b506102c561071336600461253d565b611b1b565b34801561072457600080fd5b506103157f000000000000000000000000000000000000000000000000000000000000000081565b34801561075857600080fd5b506104f161076736600461253d565b60116020526000908152604090205481565b34801561078557600080fd5b506104f1600a5481565b34801561079b57600080fd5b506102596107aa3660046129fa565b600560209081526000928352604080842090915290825290205460ff1681565b60007f01ffc9a7000000000000000000000000000000000000000000000000000000007fffffffff000000000000000000000000000000000000000000000000000000008316148061085d57507f80ac58cd000000000000000000000000000000000000000000000000000000007fffffffff000000000000000000000000000000000000000000000000000000008316145b806108a957507f5b5e139f000000000000000000000000000000000000000000000000000000007fffffffff000000000000000000000000000000000000000000000000000000008316145b806108f557507f2a55205a000000000000000000000000000000000000000000000000000000007fffffffff000000000000000000000000000000000000000000000000000000008316145b92915050565b6000805461090890612a2d565b80601f016020809104026020016040519081016040528092919081815260200182805461093490612a2d565b80156109815780601f1061095657610100808354040283529160200191610981565b820191906000526020600020905b81548152906001019060200180831161096457829003601f168201915b505050505081565b60008181526002602052604090205473ffffffffffffffffffffffffffffffffffffffff16338114806109ec575073ffffffffffffffffffffffffffffffffffffffff8116600090815260056020908152604080832033845290915290205460ff165b610a57576040517f08c379a000000000000000000000000000000000000000000000000000000000815260206004820152600e60248201527f4e4f545f415554484f52495a454400000000000000000000000000000000000060448201526064015b60405180910390fd5b60008281526004602052604080822080547fffffffffffffffffffffffff00000000000000000000000000000000000000001673ffffffffffffffffffffffffffffffffffffffff87811691821790925591518593918516917f8c5be1e5ebec7d5bd14f71427d1e84f3dd0314c0f7b2291e5b200ac8c7c3b92591a4505050565b80610ae28161140a565b73ffffffffffffffffffffffffffffffffffffffff163373ffffffffffffffffffffffffffffffffffffffff1614610b1957600080fd5b6000828152600f602052604090205460ff1615610b3557600080fd5b6000828152600d602052604090205460ff16606414610b5357600080fd5b6000828152601060209081526040918290209151610b72929101612a80565b604051602081830303815290604052805190602001207f18dd307dad56bbc1962747ba3045a38d4d58443f58f1cc44ef53fb0c22e75bdf60001b14610bb657600080fd5b624ee1c0610bc76250334042612b43565b11610bd157600080fd5b506000908152600f6020526040902080547fffffffffffffffffffffffffffffffffffffffffffffffffffffffffffffff00166001179055565b80610c158161140a565b73ffffffffffffffffffffffffffffffffffffffff163373ffffffffffffffffffffffffffffffffffffffff1614610c4c57600080fd5b6000610c5783611885565b905080601160008581526020019081526020016000206000828254610c7c9190612b86565b90915550506040517f40c10f19000000000000000000000000000000000000000000000000000000008152336004820152602481018290527f000000000000000000000000000000000000000000000000000000000000000073ffffffffffffffffffffffffffffffffffffffff16906340c10f1990604401600060405180830381600087803b158015610d0f57600080fd5b505af1158015610d23573d6000803e3d6000fd5b50505050505050565b6000818152600d6020526040902054606460ff9091161015610d80576000818152600d602052604081208054909190610d679060ff16612b99565b91906101000a81548160ff021916908360ff1602179055505b610d8b838383611d1c565b505050565b600082815260076020908152604080832081518083019092525473ffffffffffffffffffffffffffffffffffffffff8116808352740100000000000000000000000000000000000000009091046bffffffffffffffffffffffff16928201929092528291610e4b57506040805180820190915260065473ffffffffffffffffffffffffffffffffffffffff811682527401000000000000000000000000000000000000000090046bffffffffffffffffffffffff1660208201525b602081015160009061271090610e6f906bffffffffffffffffffffffff1687612bb8565b610e799190612bcf565b915196919550909350505050565b81610e918161140a565b73ffffffffffffffffffffffffffffffffffffffff163373ffffffffffffffffffffffffffffffffffffffff1614610ec857600080fd5b6a02c1dc581118dc36340000610edd84611885565b6040517f70a082310000000000000000000000000000000000000000000000000000000081523360048201527f000000000000000000000000000000000000000000000000000000000000000073ffffffffffffffffffffffffffffffffffffffff16906370a0823190602401602060405180830381865afa158015610f67573d6000803e3d6000fd5b505050506040513d601f19601f82011682018060405250810190610f8b9190612be3565b610f959190612b86565b1015610fa057600080fd5b610fa983610c0b565b6040517f9dc29fac0000000000000000000000000000000000000000000000000000000081523360048201526a02c1dc581118dc3634000060248201527f000000000000000000000000000000000000000000000000000000000000000073ffffffffffffffffffffffffffffffffffffffff1690639dc29fac90604401600060405180830381600087803b15801561104157600080fd5b505af1158015611055573d6000803e3d6000fd5b5050506000848152600b60205260408120805473ffffffffffffffffffffffffffffffffffffffff7f00000000000000000000000000000000000000000000000000000000000000001693506340c10f19923392916110b390612bfc565b91829055506040517fffffffff0000000000000000000000000000000000000000000000000000000060e085901b16815273ffffffffffffffffffffffffffffffffffffffff90921660048301526024820152604401600060405180830381600087803b15801561112357600080fd5b505af1158015611137573d6000803e3d6000fd5b5050506000848152600f602052604090205460ff166001039050611230576000838152600f602052604080822080547fffffffffffffffffffffffffffffffffffffffffffffffffffffffffffffff00169055517f40c10f1900000000000000000000000000000000000000000000000000000000815233600482015260248101919091527f000000000000000000000000000000000000000000000000000000000000000073ffffffffffffffffffffffffffffffffffffffff16906340c10f1990604401600060405180830381600087803b15801561121757600080fd5b505af115801561122b573d6000803e3d6000fd5b505050505b8183604051602001611243929190612c34565b604080517fffffffffffffffffffffffffffffffffffffffffffffffffffffffffffffffe081840301815282825280516020918201206000878152600c835283812091909155600d825282812080547fffffffffffffffffffffffffffffffffffffffffffffffffffffffffffffff001690558383018352600184527f300000000000000000000000000000000000000000000000000000000000000084830152868152601090915220906112f89082612ca4565b50505050565b6010602052600090815260409020805461090890612a2d565b60085473ffffffffffffffffffffffffffffffffffffffff16331461133b57600080fd5b60085460405160009173ffffffffffffffffffffffffffffffffffffffff169047908381818185875af1925050503d8060008114611395576040519150601f19603f3d011682016040523d82523d6000602084013e61139a565b606091505b50509050806113a857600080fd5b50565b6000818152600d6020526040902054606460ff90911610156113ff576000818152600d6020526040812080549091906113e69060ff16612b99565b91906101000a81548160ff021916908360ff1602179055505b610d8b838383611fe3565b60008181526002602052604090205473ffffffffffffffffffffffffffffffffffffffff1680611496576040517f08c379a000000000000000000000000000000000000000000000000000000000815260206004820152600a60248201527f4e4f545f4d494e544544000000000000000000000000000000000000000000006044820152606401610a4e565b919050565b600073ffffffffffffffffffffffffffffffffffffffff821661151a576040517f08c379a000000000000000000000000000000000000000000000000000000000815260206004820152600c60248201527f5a45524f5f4144445245535300000000000000000000000000000000000000006044820152606401610a4e565b5073ffffffffffffffffffffffffffffffffffffffff1660009081526003602052604090205490565b8061154d8161140a565b73ffffffffffffffffffffffffffffffffffffffff163373ffffffffffffffffffffffffffffffffffffffff161461158457600080fd5b6000828152600e602052604081205460ff1690036115d7576000828152600e6020526040902080547fffffffffffffffffffffffffffffffffffffffffffffffffffffffffffffff001660011790555050565b6000828152600e6020526040902080547fffffffffffffffffffffffffffffffffffffffffffffffffffffffffffffff001690555b5050565b8161161a8161140a565b73ffffffffffffffffffffffffffffffffffffffff163373ffffffffffffffffffffffffffffffffffffffff161461165157600080fd5b815160051461165f57600080fd5b60408051808201909152600181527f5b00000000000000000000000000000000000000000000000000000000000000602082015260005b6005811015611858578381815181106116b1576116b1612dbe565b6020026020010151516005146116c657600080fd5b816040516020016116d79190612ded565b604051602081830303815290604052915060005b60058110156117f457600685838151811061170857611708612dbe565b6020026020010151828151811061172157611721612dbe565b60200260200101511061173357600080fd5b8261176f86848151811061174957611749612dbe565b6020026020010151838151811061176257611762612dbe565b6020026020010151612148565b604051602001611780929190612e2e565b604051602081830303815290604052925060048110156117c157826040516020016117ab9190612e5d565b60405160208183030381529060405292506117e4565b826040516020016117d29190612e9e565b60405160208183030381529060405292505b6117ed81612bfc565b90506116eb565b506004811015611825578160405160200161180f9190612e5d565b6040516020818303038152906040529150611848565b816040516020016118369190612e9e565b60405160208183030381529060405291505b61185181612bfc565b9050611696565b5060008481526010602052604090206118718282612ca4565b5050505050565b6001805461090890612a2d565b6000818152601160205260408120546009546118a19042612edf565b6118b390670de0b6b3a7640000612bb8565b6108f59190612edf565b426009541115806118e5575060085473ffffffffffffffffffffffffffffffffffffffff1633145b6118ee57600080fd5b6118ff66764e2c6f05400082612bb8565b341480611923575060085473ffffffffffffffffffffffffffffffffffffffff1633145b61192c57600080fd5b610d0581600a5461193d9190612b86565b111561194857600080fd5b60005b8181101561160c57600a805460010190819055611967816121aa565b6000828152600c60205260409020556119803382612206565b60019182019181166000036119c7576000818152600e6020526040902080547fffffffffffffffffffffffffffffffffffffffffffffffffffffffffffffff001660011790555b6040518060400160405280600181526020017f3000000000000000000000000000000000000000000000000000000000000000815250601060008381526020019081526020016000209081611a1c9190612ca4565b505061194b565b33600081815260056020908152604080832073ffffffffffffffffffffffffffffffffffffffff87168085529083529281902080547fffffffffffffffffffffffffffffffffffffffffffffffffffffffffffffff001686151590811790915590519081529192917f17307eab39ab6107e8899845ad3d59bd9653f200f220920489ca2b5937696c31910160405180910390a35050565b6000838152600d6020526040902054606460ff9091161015611b0e576000838152600d602052604081208054909190611af59060ff16612b99565b91906101000a81548160ff021916908360ff1602179055505b611871858585858561239f565b60408051610100810182528281526000838152600c60209081528382205481840152848252600b81528382205483850152848252601090529182208054606093929182850191611b6a90612a2d565b80601f0160208091040260200160405190810160405280929190818152602001828054611b9690612a2d565b8015611be35780601f10611bb857610100808354040283529160200191611be3565b820191906000526020600020905b815481529060010190602001808311611bc657829003601f168201915b50505050508152602001611bf68561140a565b73ffffffffffffffffffffffffffffffffffffffff90811682526000868152600e602090815260408083205460ff90811683870152898452600d835281842054811682870152898452600f90925291829020541660609093019290925290517ff9cabb090000000000000000000000000000000000000000000000000000000081529192507f0000000000000000000000000000000000000000000000000000000000000000169063f9cabb0990611cb2908490600401612ef2565b600060405180830381865afa158015611ccf573d6000803e3d6000fd5b505050506040513d6000823e601f3d9081017fffffffffffffffffffffffffffffffffffffffffffffffffffffffffffffffe0168201604052611d159190810190612f8a565b9392505050565b60008181526002602052604090205473ffffffffffffffffffffffffffffffffffffffff848116911614611dac576040517f08c379a000000000000000000000000000000000000000000000000000000000815260206004820152600a60248201527f57524f4e475f46524f4d000000000000000000000000000000000000000000006044820152606401610a4e565b73ffffffffffffffffffffffffffffffffffffffff8216611e29576040517f08c379a000000000000000000000000000000000000000000000000000000000815260206004820152601160248201527f494e56414c49445f524543495049454e540000000000000000000000000000006044820152606401610a4e565b3373ffffffffffffffffffffffffffffffffffffffff84161480611e7d575073ffffffffffffffffffffffffffffffffffffffff8316600090815260056020908152604080832033845290915290205460ff165b80611eab575060008181526004602052604090205473ffffffffffffffffffffffffffffffffffffffff1633145b611f11576040517f08c379a000000000000000000000000000000000000000000000000000000000815260206004820152600e60248201527f4e4f545f415554484f52495a45440000000000000000000000000000000000006044820152606401610a4e565b73ffffffffffffffffffffffffffffffffffffffff808416600081815260036020908152604080832080547fffffffffffffffffffffffffffffffffffffffffffffffffffffffffffffffff019055938616808352848320805460010190558583526002825284832080547fffffffffffffffffffffffff00000000000000000000000000000000000000009081168317909155600490925284832080549092169091559251849392917fddf252ad1be2c89b69c2b068fc378daa952ba7f163c4a11628f55a4df523b3ef91a4505050565b611fee838383610d2c565b73ffffffffffffffffffffffffffffffffffffffff82163b15806120e257506040517f150b7a020000000000000000000000000000000000000000000000000000000080825233600483015273ffffffffffffffffffffffffffffffffffffffff858116602484015260448301849052608060648401526000608484015290919084169063150b7a029060a4016020604051808303816000875af115801561209a573d6000803e3d6000fd5b505050506040513d601f19601f820116820180604052508101906120be9190613001565b7fffffffff0000000000000000000000000000000000000000000000000000000016145b610d8b576040517f08c379a000000000000000000000000000000000000000000000000000000000815260206004820152601060248201527f554e534146455f524543495049454e54000000000000000000000000000000006044820152606401610a4e565b60606080604051019050602081016040526000815280600019835b928101926030600a8206018453600a9004806121635750508190037fffffffffffffffffffffffffffffffffffffffffffffffffffffffffffffffe0909101908152919050565b60006121b7600143612edf565b60408051914060208301528101839052606001604080517fffffffffffffffffffffffffffffffffffffffffffffffffffffffffffffffe0818403018152919052805160209091012092915050565b73ffffffffffffffffffffffffffffffffffffffff8216612283576040517f08c379a000000000000000000000000000000000000000000000000000000000815260206004820152601160248201527f494e56414c49445f524543495049454e540000000000000000000000000000006044820152606401610a4e565b60008181526002602052604090205473ffffffffffffffffffffffffffffffffffffffff161561230f576040517f08c379a000000000000000000000000000000000000000000000000000000000815260206004820152600e60248201527f414c52454144595f4d494e5445440000000000000000000000000000000000006044820152606401610a4e565b73ffffffffffffffffffffffffffffffffffffffff8216600081815260036020908152604080832080546001019055848352600290915280822080547fffffffffffffffffffffffff0000000000000000000000000000000000000000168417905551839291907fddf252ad1be2c89b69c2b068fc378daa952ba7f163c4a11628f55a4df523b3ef908290a45050565b6123aa858585610d2c565b73ffffffffffffffffffffffffffffffffffffffff84163b158061248c57506040517f150b7a02000000000000000000000000000000000000000000000000000000008082529073ffffffffffffffffffffffffffffffffffffffff86169063150b7a02906124259033908a9089908990899060040161301e565b6020604051808303816000875af1158015612444573d6000803e3d6000fd5b505050506040513d601f19601f820116820180604052508101906124689190613001565b7fffffffff0000000000000000000000000000000000000000000000000000000016145b611871576040517f08c379a000000000000000000000000000000000000000000000000000000000815260206004820152601060248201527f554e534146455f524543495049454e54000000000000000000000000000000006044820152606401610a4e565b7fffffffff00000000000000000000000000000000000000000000000000000000811681146113a857600080fd5b60006020828403121561253257600080fd5b8135611d15816124f2565b60006020828403121561254f57600080fd5b5035919050565b60005b83811015612571578181015183820152602001612559565b50506000910152565b60008151808452612592816020860160208601612556565b601f017fffffffffffffffffffffffffffffffffffffffffffffffffffffffffffffffe0169290920160200192915050565b602081526000611d15602083018461257a565b803573ffffffffffffffffffffffffffffffffffffffff8116811461149657600080fd5b6000806040838503121561260e57600080fd5b612617836125d7565b946020939093013593505050565b60008060006060848603121561263a57600080fd5b612643846125d7565b9250612651602085016125d7565b9150604084013590509250925092565b6000806040838503121561267457600080fd5b50508035926020909101359150565b7f4e487b7100000000000000000000000000000000000000000000000000000000600052604160045260246000fd5b604051601f82017fffffffffffffffffffffffffffffffffffffffffffffffffffffffffffffffe016810167ffffffffffffffff811182821017156126f9576126f9612683565b604052919050565b600067ffffffffffffffff82111561271b5761271b612683565b50601f017fffffffffffffffffffffffffffffffffffffffffffffffffffffffffffffffe01660200190565b6000806040838503121561275a57600080fd5b82359150602083013567ffffffffffffffff81111561277857600080fd5b8301601f8101851361278957600080fd5b803561279c61279782612701565b6126b2565b8181528660208385010111156127b157600080fd5b816020840160208301376000602083830101528093505050509250929050565b6000602082840312156127e357600080fd5b611d15826125d7565b600067ffffffffffffffff82111561280657612806612683565b5060051b60200190565b600080604080848603121561282457600080fd5b8335925060208085013567ffffffffffffffff8082111561284457600080fd5b818701915087601f83011261285857600080fd5b8135612866612797826127ec565b81815260059190911b8301840190848101908a83111561288557600080fd5b8585015b83811015612911578035858111156128a15760008081fd5b8601603f81018d136128b35760008081fd5b878101356128c3612797826127ec565b81815260059190911b82018a0190898101908f8311156128e35760008081fd5b928b01925b828410156129015783358252928a0192908a01906128e8565b8652505050918601918601612889565b50809750505050505050509250929050565b6000806040838503121561293657600080fd5b61293f836125d7565b91506020830135801515811461295457600080fd5b809150509250929050565b60008060008060006080868803121561297757600080fd5b612980866125d7565b945061298e602087016125d7565b935060408601359250606086013567ffffffffffffffff808211156129b257600080fd5b818801915088601f8301126129c657600080fd5b8135818111156129d557600080fd5b8960208285010111156129e757600080fd5b9699959850939650602001949392505050565b60008060408385031215612a0d57600080fd5b612a16836125d7565b9150612a24602084016125d7565b90509250929050565b600181811c90821680612a4157607f821691505b602082108103612a7a577f4e487b7100000000000000000000000000000000000000000000000000000000600052602260045260246000fd5b50919050565b6000808354612a8e81612a2d565b60018281168015612aa65760018114612ad957612b08565b7fffffffffffffffffffffffffffffffffffffffffffffffffffffffffffffff0084168752821515830287019450612b08565b8760005260208060002060005b85811015612aff5781548a820152908401908201612ae6565b50505082870194505b50929695505050505050565b7f4e487b7100000000000000000000000000000000000000000000000000000000600052601260045260246000fd5b600082612b5257612b52612b14565b500690565b7f4e487b7100000000000000000000000000000000000000000000000000000000600052601160045260246000fd5b808201808211156108f5576108f5612b57565b600060ff821660ff8103612baf57612baf612b57565b60010192915050565b80820281158282048414176108f5576108f5612b57565b600082612bde57612bde612b14565b500490565b600060208284031215612bf557600080fd5b5051919050565b60007fffffffffffffffffffffffffffffffffffffffffffffffffffffffffffffffff8203612c2d57612c2d612b57565b5060010190565b60008351612c46818460208801612556565b9190910191825250602001919050565b601f821115610d8b57600081815260208120601f850160051c81016020861015612c7d5750805b601f850160051c820191505b81811015612c9c57828155600101612c89565b505050505050565b815167ffffffffffffffff811115612cbe57612cbe612683565b612cd281612ccc8454612a2d565b84612c56565b602080601f831160018114612d255760008415612cef5750858301515b7fffffffffffffffffffffffffffffffffffffffffffffffffffffffffffffffff600386901b1c1916600185901b178555612c9c565b6000858152602081207fffffffffffffffffffffffffffffffffffffffffffffffffffffffffffffffe08616915b82811015612d7257888601518255948401946001909101908401612d53565b5085821015612dae57878501517fffffffffffffffffffffffffffffffffffffffffffffffffffffffffffffffff600388901b60f8161c191681555b5050505050600190811b01905550565b7f4e487b7100000000000000000000000000000000000000000000000000000000600052603260045260246000fd5b60008251612dff818460208701612556565b7f5b00000000000000000000000000000000000000000000000000000000000000920191825250600101919050565b60008351612e40818460208801612556565b835190830190612e54818360208801612556565b01949350505050565b60008251612e6f818460208701612556565b7f2c00000000000000000000000000000000000000000000000000000000000000920191825250600101919050565b60008251612eb0818460208701612556565b7f5d00000000000000000000000000000000000000000000000000000000000000920191825250600101919050565b818103818111156108f5576108f5612b57565b6020815281516020820152602082015160408201526040820151606082015260006060830151610100806080850152612f2f61012085018361257a565b915073ffffffffffffffffffffffffffffffffffffffff60808601511660a085015260ff60a08601511660c085015260c0850151612f7260e086018260ff169052565b5060e085015160ff8116858301525090949350505050565b600060208284031215612f9c57600080fd5b815167ffffffffffffffff811115612fb357600080fd5b8201601f81018413612fc457600080fd5b8051612fd261279782612701565b818152856020838501011115612fe757600080fd5b612ff8826020830160208601612556565b95945050505050565b60006020828403121561301357600080fd5b8151611d15816124f2565b600073ffffffffffffffffffffffffffffffffffffffff808816835280871660208401525084604083015260806060830152826080830152828460a0840137600060a0848401015260a07fffffffffffffffffffffffffffffffffffffffffffffffffffffffffffffffe0601f8501168301019050969550505050505056fea164736f6c6343000814000a6101006040523480156200001257600080fd5b506040518060400160405280600c81526020016b20b73a34b3b930bb34ba37b760a11b8152506040518060400160405280600681526020016526233936363b60d01b815250601282600090816200006a9190620001e0565b506001620000798382620001e0565b5060ff81166080524660a0526200008f6200009f565b60c05250503360e052506200032a565b60007f8b73c3c69bb8fe3d512ecc4cf759cc79239f7b179b0ffacaa9a75d522b39400f6000604051620000d39190620002ac565b6040805191829003822060208301939093528101919091527fc89efdaa54c0f20c7adf612882df0950f5a951637e0307cdcb4c672f298b8bc660608201524660808201523060a082015260c00160405160208183030381529060405280519060200120905090565b634e487b7160e01b600052604160045260246000fd5b600181811c908216806200016657607f821691505b6020821081036200018757634e487b7160e01b600052602260045260246000fd5b50919050565b601f821115620001db57600081815260208120601f850160051c81016020861015620001b65750805b601f850160051c820191505b81811015620001d757828155600101620001c2565b5050505b505050565b81516001600160401b03811115620001fc57620001fc6200013b565b62000214816200020d845462000151565b846200018d565b602080601f8311600181146200024c5760008415620002335750858301515b600019600386901b1c1916600185901b178555620001d7565b600085815260208120601f198616915b828110156200027d578886015182559484019460019091019084016200025c565b50858210156200029c5787850151600019600388901b60f8161c191681555b5050505050600190811b01905550565b6000808354620002bc8162000151565b60018281168015620002d75760018114620002ed576200031e565b60ff19841687528215158302870194506200031e565b8760005260208060002060005b85811015620003155781548a820152908401908201620002fa565b50505082870194505b50929695505050505050565b60805160a05160c05160e051610e446200036b6000396000818161051b0152610578015260006104e1015260006104ac0152600061015f0152610e446000f3fe608060405234801561001057600080fd5b50600436106100ea5760003560e01c806370a082311161008c5780639dc29fac116100665780639dc29fac146101f8578063a9059cbb1461020b578063d505accf1461021e578063dd62ed3e1461023157600080fd5b806370a08231146101b05780637ecebe00146101d057806395d89b41146101f057600080fd5b806323b872dd116100c857806323b872dd14610147578063313ce5671461015a5780633644e5151461019357806340c10f191461019b57600080fd5b806306fdde03146100ef578063095ea7b31461010d57806318160ddd14610130575b600080fd5b6100f761025c565b6040516101049190610af6565b60405180910390f35b61012061011b366004610b8b565b6102ea565b6040519015158152602001610104565b61013960025481565b604051908152602001610104565b610120610155366004610bb5565b610364565b6101817f000000000000000000000000000000000000000000000000000000000000000081565b60405160ff9091168152602001610104565b6101396104a8565b6101ae6101a9366004610b8b565b610503565b005b6101396101be366004610bf1565b60036020526000908152604090205481565b6101396101de366004610bf1565b60056020526000908152604090205481565b6100f7610553565b6101ae610206366004610b8b565b610560565b610120610219366004610b8b565b6105ac565b6101ae61022c366004610c13565b610631565b61013961023f366004610c86565b600460209081526000928352604080842090915290825290205481565b6000805461026990610cb9565b80601f016020809104026020016040519081016040528092919081815260200182805461029590610cb9565b80156102e25780601f106102b7576101008083540402835291602001916102e2565b820191906000526020600020905b8154815290600101906020018083116102c557829003601f168201915b505050505081565b33600081815260046020908152604080832073ffffffffffffffffffffffffffffffffffffffff8716808552925280832085905551919290917f8c5be1e5ebec7d5bd14f71427d1e84f3dd0314c0f7b2291e5b200ac8c7c3b925906103529086815260200190565b60405180910390a35060015b92915050565b73ffffffffffffffffffffffffffffffffffffffff831660009081526004602090815260408083203384529091528120547fffffffffffffffffffffffffffffffffffffffffffffffffffffffffffffffff81146103f8576103c68382610d3b565b73ffffffffffffffffffffffffffffffffffffffff861660009081526004602090815260408083203384529091529020555b73ffffffffffffffffffffffffffffffffffffffff85166000908152600360205260408120805485929061042d908490610d3b565b909155505073ffffffffffffffffffffffffffffffffffffffff808516600081815260036020526040908190208054870190555190918716907fddf252ad1be2c89b69c2b068fc378daa952ba7f163c4a11628f55a4df523b3ef906104959087815260200190565b60405180910390a3506001949350505050565b60007f000000000000000000000000000000000000000000000000000000000000000046146104de576104d9610955565b905090565b507f000000000000000000000000000000000000000000000000000000000000000090565b3373ffffffffffffffffffffffffffffffffffffffff7f0000000000000000000000000000000000000000000000000000000000000000161461054557600080fd5b61054f82826109ef565b5050565b6001805461026990610cb9565b3373ffffffffffffffffffffffffffffffffffffffff7f000000000000000000000000000000000000000000000000000000000000000016146105a257600080fd5b61054f8282610a68565b336000908152600360205260408120805483919083906105cd908490610d3b565b909155505073ffffffffffffffffffffffffffffffffffffffff8316600081815260036020526040908190208054850190555133907fddf252ad1be2c89b69c2b068fc378daa952ba7f163c4a11628f55a4df523b3ef906103529086815260200190565b428410156106a0576040517f08c379a000000000000000000000000000000000000000000000000000000000815260206004820152601760248201527f5045524d49545f444541444c494e455f4558504952454400000000000000000060448201526064015b60405180910390fd5b600060016106ac6104a8565b73ffffffffffffffffffffffffffffffffffffffff8a811660008181526005602090815260409182902080546001810190915582517f6e71edae12b1b97f4d1f60370fef10105fa2faae0126114a169c64845d6126c98184015280840194909452938d166060840152608083018c905260a083019390935260c08083018b90528151808403909101815260e0830190915280519201919091207f190100000000000000000000000000000000000000000000000000000000000061010083015261010282019290925261012281019190915261014201604080517fffffffffffffffffffffffffffffffffffffffffffffffffffffffffffffffe08184030181528282528051602091820120600084529083018083525260ff871690820152606081018590526080810184905260a0016020604051602081039080840390855afa1580156107fe573d6000803e3d6000fd5b50506040517fffffffffffffffffffffffffffffffffffffffffffffffffffffffffffffffe0015191505073ffffffffffffffffffffffffffffffffffffffff81161580159061087957508773ffffffffffffffffffffffffffffffffffffffff168173ffffffffffffffffffffffffffffffffffffffff16145b6108df576040517f08c379a000000000000000000000000000000000000000000000000000000000815260206004820152600e60248201527f494e56414c49445f5349474e45520000000000000000000000000000000000006044820152606401610697565b73ffffffffffffffffffffffffffffffffffffffff90811660009081526004602090815260408083208a8516808552908352928190208990555188815291928a16917f8c5be1e5ebec7d5bd14f71427d1e84f3dd0314c0f7b2291e5b200ac8c7c3b925910160405180910390a350505050505050565b60007f8b73c3c69bb8fe3d512ecc4cf759cc79239f7b179b0ffacaa9a75d522b39400f60006040516109879190610d4e565b6040805191829003822060208301939093528101919091527fc89efdaa54c0f20c7adf612882df0950f5a951637e0307cdcb4c672f298b8bc660608201524660808201523060a082015260c00160405160208183030381529060405280519060200120905090565b8060026000828254610a019190610e24565b909155505073ffffffffffffffffffffffffffffffffffffffff82166000818152600360209081526040808320805486019055518481527fddf252ad1be2c89b69c2b068fc378daa952ba7f163c4a11628f55a4df523b3ef91015b60405180910390a35050565b73ffffffffffffffffffffffffffffffffffffffff821660009081526003602052604081208054839290610a9d908490610d3b565b909155505060028054829003905560405181815260009073ffffffffffffffffffffffffffffffffffffffff8416907fddf252ad1be2c89b69c2b068fc378daa952ba7f163c4a11628f55a4df523b3ef90602001610a5c565b600060208083528351808285015260005b81811015610b2357858101830151858201604001528201610b07565b5060006040828601015260407fffffffffffffffffffffffffffffffffffffffffffffffffffffffffffffffe0601f8301168501019250505092915050565b803573ffffffffffffffffffffffffffffffffffffffff81168114610b8657600080fd5b919050565b60008060408385031215610b9e57600080fd5b610ba783610b62565b946020939093013593505050565b600080600060608486031215610bca57600080fd5b610bd384610b62565b9250610be160208501610b62565b9150604084013590509250925092565b600060208284031215610c0357600080fd5b610c0c82610b62565b9392505050565b600080600080600080600060e0888a031215610c2e57600080fd5b610c3788610b62565b9650610c4560208901610b62565b95506040880135945060608801359350608088013560ff81168114610c6957600080fd5b9699959850939692959460a0840135945060c09093013592915050565b60008060408385031215610c9957600080fd5b610ca283610b62565b9150610cb060208401610b62565b90509250929050565b600181811c90821680610ccd57607f821691505b602082108103610d06577f4e487b7100000000000000000000000000000000000000000000000000000000600052602260045260246000fd5b50919050565b7f4e487b7100000000000000000000000000000000000000000000000000000000600052601160045260246000fd5b8181038181111561035e5761035e610d0c565b600080835481600182811c915080831680610d6a57607f831692505b60208084108203610da2577f4e487b710000000000000000000000000000000000000000000000000000000086526022600452602486fd5b818015610db65760018114610de957610e16565b7fffffffffffffffffffffffffffffffffffffffffffffffffffffffffffffff0086168952841515850289019650610e16565b60008a81526020902060005b86811015610e0e5781548b820152908501908301610df5565b505084890196505b509498975050505050505050565b8082018082111561035e5761035e610d0c56fea164736f6c6343000814000a610100604052601560c09081527f416e67656c204d6174746572205265736561726368000000000000000000000060e0526002906200003f9082620001a1565b506040805180820190915260038082526220a6a960e91b602083015290620000689082620001a1565b503480156200007657600080fd5b5060405162004ceb38038062004ceb83398101604081905262000099916200026d565b336080526040518190620000ad90620000ee565b6001600160a01b039091168152602001604051809103906000f080158015620000da573d6000803e3d6000fd5b506001600160a01b031660a052506200029f565b6132708062001a7b83390190565b634e487b7160e01b600052604160045260246000fd5b600181811c908216806200012757607f821691505b6020821081036200014857634e487b7160e01b600052602260045260246000fd5b50919050565b601f8211156200019c57600081815260208120601f850160051c81016020861015620001775750805b601f850160051c820191505b81811015620001985782815560010162000183565b5050505b505050565b81516001600160401b03811115620001bd57620001bd620000fc565b620001d581620001ce845462000112565b846200014e565b602080601f8311600181146200020d5760008415620001f45750858301515b600019600386901b1c1916600185901b17855562000198565b600085815260208120601f198616915b828110156200023e578886015182559484019460019091019084016200021d565b50858210156200025d5787850151600019600388901b60f8161c191681555b5050505050600190811b01905550565b6000602082840312156200028057600080fd5b81516001600160a01b03811681146200029857600080fd5b9392505050565b60805160a0516117b6620002c5600039600061039c0152600061084c01526117b66000f3fe608060405234801561001057600080fd5b50600436106100c85760003560e01c806340c10f1911610081578063a22cb4651161005b578063a22cb465146101a3578063e985e9c5146101b6578063f242432a146101e457600080fd5b806340c10f19146101685780634e1273f41461017b57806395d89b411461019b57600080fd5b806306fdde03116100b257806306fdde031461012b5780630e89341c146101405780632eb2c2d61461015357600080fd5b8062fdd58e146100cd57806301ffc9a714610108575b600080fd5b6100f56100db366004610fe4565b600060208181529281526040808220909352908152205481565b6040519081526020015b60405180910390f35b61011b61011636600461103f565b6101f7565b60405190151581526020016100ff565b6101336102dc565b6040516100ff91906110d1565b61013361014e3660046110e4565b61036a565b61016661016136600461118b565b61043e565b005b610166610176366004610fe4565b610834565b61018e610189366004611246565b610896565b6040516100ff91906112b2565b610133610a0d565b6101666101b13660046112f6565b610a1a565b61011b6101c4366004611332565b600160209081526000928352604080842090915290825290205460ff1681565b6101666101f2366004611365565b610ab1565b60007f01ffc9a7000000000000000000000000000000000000000000000000000000007fffffffff000000000000000000000000000000000000000000000000000000008316148061028a57507fd9b67a26000000000000000000000000000000000000000000000000000000007fffffffff000000000000000000000000000000000000000000000000000000008316145b806102d657507f0e89341c000000000000000000000000000000000000000000000000000000007fffffffff000000000000000000000000000000000000000000000000000000008316145b92915050565b600280546102e9906113dd565b80601f0160208091040260200160405190810160405280929190818152602001828054610315906113dd565b80156103625780601f1061033757610100808354040283529160200191610362565b820191906000526020600020905b81548152906001019060200180831161034557829003601f168201915b505050505081565b6040517f0e89341c000000000000000000000000000000000000000000000000000000008152600481018290526060907f000000000000000000000000000000000000000000000000000000000000000073ffffffffffffffffffffffffffffffffffffffff1690630e89341c90602401600060405180830381865afa1580156103f8573d6000803e3d6000fd5b505050506040513d6000823e601f3d9081017fffffffffffffffffffffffffffffffffffffffffffffffffffffffffffffffe01682016040526102d6919081019061145f565b8483146104ac576040517f08c379a000000000000000000000000000000000000000000000000000000000815260206004820152600f60248201527f4c454e4754485f4d49534d41544348000000000000000000000000000000000060448201526064015b60405180910390fd5b3373ffffffffffffffffffffffffffffffffffffffff89161480610500575073ffffffffffffffffffffffffffffffffffffffff8816600090815260016020908152604080832033845290915290205460ff165b610566576040517f08c379a000000000000000000000000000000000000000000000000000000000815260206004820152600e60248201527f4e4f545f415554484f52495a454400000000000000000000000000000000000060448201526064016104a3565b60008060005b8781101561063b578888828181106105865761058661152a565b9050602002013592508686828181106105a1576105a161152a565b73ffffffffffffffffffffffffffffffffffffffff8e16600090815260208181526040808320898452825282208054939091029490940135955085939250906105eb908490611588565b909155505073ffffffffffffffffffffffffffffffffffffffff8a166000908152602081815260408083208684529091528120805484929061062e90849061159b565b909155505060010161056c565b508873ffffffffffffffffffffffffffffffffffffffff168a73ffffffffffffffffffffffffffffffffffffffff163373ffffffffffffffffffffffffffffffffffffffff167f4a39dc06d4c0dbc64b70af90fd698a233a518aa5d07e595d983b8c0526c8f7fb8b8b8b8b6040516106b694939291906115f9565b60405180910390a473ffffffffffffffffffffffffffffffffffffffff89163b156107a8576040517fbc197c81000000000000000000000000000000000000000000000000000000008082529073ffffffffffffffffffffffffffffffffffffffff8b169063bc197c819061073d9033908f908e908e908e908e908e908e90600401611669565b6020604051808303816000875af115801561075c573d6000803e3d6000fd5b505050506040513d601f19601f8201168201806040525081019061078091906116da565b7fffffffff0000000000000000000000000000000000000000000000000000000016146107c2565b73ffffffffffffffffffffffffffffffffffffffff891615155b610828576040517f08c379a000000000000000000000000000000000000000000000000000000000815260206004820152601060248201527f554e534146455f524543495049454e540000000000000000000000000000000060448201526064016104a3565b50505050505050505050565b3373ffffffffffffffffffffffffffffffffffffffff7f0000000000000000000000000000000000000000000000000000000000000000161461087657600080fd5b6108928282600160405180602001604052806000815250610db7565b5050565b6060838214610901576040517f08c379a000000000000000000000000000000000000000000000000000000000815260206004820152600f60248201527f4c454e4754485f4d49534d41544348000000000000000000000000000000000060448201526064016104a3565b8367ffffffffffffffff81111561091a5761091a611430565b604051908082528060200260200182016040528015610943578160200160208202803683370190505b50905060005b84811015610a04576000808787848181106109665761096661152a565b905060200201602081019061097b91906116f7565b73ffffffffffffffffffffffffffffffffffffffff1673ffffffffffffffffffffffffffffffffffffffff16815260200190815260200160002060008585848181106109c9576109c961152a565b905060200201358152602001908152602001600020548282815181106109f1576109f161152a565b6020908102919091010152600101610949565b50949350505050565b600380546102e9906113dd565b33600081815260016020908152604080832073ffffffffffffffffffffffffffffffffffffffff87168085529083529281902080547fffffffffffffffffffffffffffffffffffffffffffffffffffffffffffffff001686151590811790915590519081529192917f17307eab39ab6107e8899845ad3d59bd9653f200f220920489ca2b5937696c31910160405180910390a35050565b3373ffffffffffffffffffffffffffffffffffffffff87161480610b05575073ffffffffffffffffffffffffffffffffffffffff8616600090815260016020908152604080832033845290915290205460ff165b610b6b576040517f08c379a000000000000000000000000000000000000000000000000000000000815260206004820152600e60248201527f4e4f545f415554484f52495a454400000000000000000000000000000000000060448201526064016104a3565b73ffffffffffffffffffffffffffffffffffffffff861660009081526020818152604080832087845290915281208054859290610ba9908490611588565b909155505073ffffffffffffffffffffffffffffffffffffffff851660009081526020818152604080832087845290915281208054859290610bec90849061159b565b9091555050604080518581526020810185905273ffffffffffffffffffffffffffffffffffffffff808816929089169133917fc3d58168c5ae7397731d063d5bbf3d657854427343f4c083240f7aacaa2d0f62910160405180910390a473ffffffffffffffffffffffffffffffffffffffff85163b15610d2f576040517ff23a6e61000000000000000000000000000000000000000000000000000000008082529073ffffffffffffffffffffffffffffffffffffffff87169063f23a6e6190610cc49033908b908a908a908a908a90600401611712565b6020604051808303816000875af1158015610ce3573d6000803e3d6000fd5b505050506040513d601f19601f82011682018060405250810190610d0791906116da565b7fffffffff000000000000000000000000000000000000000000000000000000001614610d49565b73ffffffffffffffffffffffffffffffffffffffff851615155b610daf576040517f08c379a000000000000000000000000000000000000000000000000000000000815260206004820152601060248201527f554e534146455f524543495049454e540000000000000000000000000000000060448201526064016104a3565b505050505050565b73ffffffffffffffffffffffffffffffffffffffff841660009081526020818152604080832086845290915281208054849290610df590849061159b565b9091555050604080518481526020810184905273ffffffffffffffffffffffffffffffffffffffff86169160009133917fc3d58168c5ae7397731d063d5bbf3d657854427343f4c083240f7aacaa2d0f62910160405180910390a473ffffffffffffffffffffffffffffffffffffffff84163b15610f35576040517ff23a6e61000000000000000000000000000000000000000000000000000000008082529073ffffffffffffffffffffffffffffffffffffffff86169063f23a6e6190610eca903390600090899089908990600401611764565b6020604051808303816000875af1158015610ee9573d6000803e3d6000fd5b505050506040513d601f19601f82011682018060405250810190610f0d91906116da565b7fffffffff000000000000000000000000000000000000000000000000000000001614610f4f565b73ffffffffffffffffffffffffffffffffffffffff841615155b610fb5576040517f08c379a000000000000000000000000000000000000000000000000000000000815260206004820152601060248201527f554e534146455f524543495049454e540000000000000000000000000000000060448201526064016104a3565b50505050565b803573ffffffffffffffffffffffffffffffffffffffff81168114610fdf57600080fd5b919050565b60008060408385031215610ff757600080fd5b61100083610fbb565b946020939093013593505050565b7fffffffff000000000000000000000000000000000000000000000000000000008116811461103c57600080fd5b50565b60006020828403121561105157600080fd5b813561105c8161100e565b9392505050565b60005b8381101561107e578181015183820152602001611066565b50506000910152565b6000815180845261109f816020860160208601611063565b601f017fffffffffffffffffffffffffffffffffffffffffffffffffffffffffffffffe0169290920160200192915050565b60208152600061105c6020830184611087565b6000602082840312156110f657600080fd5b5035919050565b60008083601f84011261110f57600080fd5b50813567ffffffffffffffff81111561112757600080fd5b6020830191508360208260051b850101111561114257600080fd5b9250929050565b60008083601f84011261115b57600080fd5b50813567ffffffffffffffff81111561117357600080fd5b60208301915083602082850101111561114257600080fd5b60008060008060008060008060a0898b0312156111a757600080fd5b6111b089610fbb565b97506111be60208a01610fbb565b9650604089013567ffffffffffffffff808211156111db57600080fd5b6111e78c838d016110fd565b909850965060608b013591508082111561120057600080fd5b61120c8c838d016110fd565b909650945060808b013591508082111561122557600080fd5b506112328b828c01611149565b999c989b5096995094979396929594505050565b6000806000806040858703121561125c57600080fd5b843567ffffffffffffffff8082111561127457600080fd5b611280888389016110fd565b9096509450602087013591508082111561129957600080fd5b506112a6878288016110fd565b95989497509550505050565b6020808252825182820181905260009190848201906040850190845b818110156112ea578351835292840192918401916001016112ce565b50909695505050505050565b6000806040838503121561130957600080fd5b61131283610fbb565b91506020830135801515811461132757600080fd5b809150509250929050565b6000806040838503121561134557600080fd5b61134e83610fbb565b915061135c60208401610fbb565b90509250929050565b60008060008060008060a0878903121561137e57600080fd5b61138787610fbb565b955061139560208801610fbb565b94506040870135935060608701359250608087013567ffffffffffffffff8111156113bf57600080fd5b6113cb89828a01611149565b979a9699509497509295939492505050565b600181811c908216806113f157607f821691505b60208210810361142a577f4e487b7100000000000000000000000000000000000000000000000000000000600052602260045260246000fd5b50919050565b7f4e487b7100000000000000000000000000000000000000000000000000000000600052604160045260246000fd5b60006020828403121561147157600080fd5b815167ffffffffffffffff8082111561148957600080fd5b818401915084601f83011261149d57600080fd5b8151818111156114af576114af611430565b604051601f82017fffffffffffffffffffffffffffffffffffffffffffffffffffffffffffffffe0908116603f011681019083821181831017156114f5576114f5611430565b8160405282815287602084870101111561150e57600080fd5b61151f836020830160208801611063565b979650505050505050565b7f4e487b7100000000000000000000000000000000000000000000000000000000600052603260045260246000fd5b7f4e487b7100000000000000000000000000000000000000000000000000000000600052601160045260246000fd5b818103818111156102d6576102d6611559565b808201808211156102d6576102d6611559565b81835260007f07ffffffffffffffffffffffffffffffffffffffffffffffffffffffffffffff8311156115e057600080fd5b8260051b80836020870137939093016020019392505050565b60408152600061160d6040830186886115ae565b828103602084015261151f8185876115ae565b8183528181602085013750600060208284010152600060207fffffffffffffffffffffffffffffffffffffffffffffffffffffffffffffffe0601f840116840101905092915050565b600073ffffffffffffffffffffffffffffffffffffffff808b168352808a1660208401525060a060408301526116a360a08301888a6115ae565b82810360608401526116b68187896115ae565b905082810360808401526116cb818587611620565b9b9a5050505050505050505050565b6000602082840312156116ec57600080fd5b815161105c8161100e565b60006020828403121561170957600080fd5b61105c82610fbb565b600073ffffffffffffffffffffffffffffffffffffffff808916835280881660208401525085604083015284606083015260a0608083015261175860a083018486611620565b98975050505050505050565b600073ffffffffffffffffffffffffffffffffffffffff808816835280871660208401525084604083015283606083015260a0608083015261151f60a083018461108756fea164736f6c6343000814000a6102e060405261022c6080818152906200304460a03960019062000024908262000120565b503480156200003257600080fd5b5060405162003270380380620032708339810160408190526200005591620001ec565b600080546001600160a01b0319166001600160a01b03929092169190911790556200021e565b634e487b7160e01b600052604160045260246000fd5b600181811c90821680620000a657607f821691505b602082108103620000c757634e487b7160e01b600052602260045260246000fd5b50919050565b601f8211156200011b57600081815260208120601f850160051c81016020861015620000f65750805b601f850160051c820191505b81811015620001175782815560010162000102565b5050505b505050565b81516001600160401b038111156200013c576200013c6200007b565b62000154816200014d845462000091565b84620000cd565b602080601f8311600181146200018c5760008415620001735750858301515b600019600386901b1c1916600185901b17855562000117565b600085815260208120601f198616915b82811015620001bd578886015182559484019460019091019084016200019c565b5085821015620001dc5787850151600019600388901b60f8161c191681555b5050505050600190811b01905550565b600060208284031215620001ff57600080fd5b81516001600160a01b03811681146200021757600080fd5b9392505050565b612e16806200022e6000396000f3fe608060405234801561001057600080fd5b506004361061002b5760003560e01c80630e89341c14610030575b600080fd5b61004361003e3660046109a4565b610059565b60405161005091906109e1565b60405180910390f35b6060610120600083116100a1576040518060400160405280600381526020017f2e2e2e00000000000000000000000000000000000000000000000000000000008152506100aa565b6100aa83610146565b60016100b5856101a8565b6100be866101c8565b6040516020016100d19493929190610a4e565b604080517fffffffffffffffffffffffffffffffffffffffffffffffffffffffffffffffe08184030181529082905261010c91602001610c01565b6040516020818303038152906040526101f6565b6040516020016101309190610c1d565b6040516020818303038152906040529050919050565b60606080604051019050602081016040526000815280600019835b928101926030600a8206018453600a9004806101615750508190037fffffffffffffffffffffffffffffffffffffffffffffffffffffffffffffffe0909101908152919050565b606081156101bf576101b982610204565b92915050565b6101b98261044f565b60606101e66101d68361059d565b6040516020016100d19190610c62565b6040516020016101309190610d66565b60606101b98260008061072d565b606060006040518060a00160405280606d8152602001612d5c606d9139905060005b601a81101561036257600061024f61023f836014610e27565b61024a90600a610e3e565b610146565b905082816102e9848860405160200161026a91815260200190565b6040516020818303038152906040528051906020012060405160200161029a929190918252602082015260400190565b604080517fffffffffffffffffffffffffffffffffffffffffffffffffffffffffffffffe081840301815282825280516020918201209083015201604051602081830303815290604052610830565b836103096102f8876001610e3e565b60408051602081018d90520161026a565b85610329610318896002610e3e565b60408051602081018f90520161026a565b60405160200161033f9796959493929190610e51565b6040516020818303038152906040529250508061035b906111af565b9050610226565b5060005b600b8110156103fc57600061038a61037f836032610e27565b61024a906019610e3e565b905082816103a5848860405160200161026a91815260200190565b836103b46102f8876001610e3e565b856103c3610318896002610e3e565b6040516020016103d997969594939291906111e7565b604051602081830303815290604052925050806103f5906111af565b9050610366565b508060405160200161040e9190611487565b6040516020818303038152906040529050610428816101f6565b60405160200161043891906114c8565b604051602081830303815290604052915050919050565b60606000604051806080016040528060418152602001612dc960419139905060005b601a8110156104fc57600061048a61023f836014610e27565b905082816104a5848860405160200161026a91815260200190565b836104b46102f8876001610e3e565b856104c3610318896002610e3e565b6040516020016104d9979695949392919061150d565b604051602081830303815290604052925050806104f5906111af565b9050610471565b5060005b600b81101561058b57600061051961037f836032610e27565b90508281610534848860405160200161026a91815260200190565b836105436102f8876001610e3e565b85610552610318896002610e3e565b6040516020016105689796959493929190611857565b60405160208183030381529060405292505080610584906111af565b9050610500565b508060405160200161040e9190611af7565b6000546040517fe0876aa800000000000000000000000000000000000000000000000000000000815260206004820152601360248201527f70352d76312e352e302e6d696e2e6a732e677a00000000000000000000000000604482015260609161068c9173ffffffffffffffffffffffffffffffffffffffff9091169063e0876aa8906064015b600060405180830381865afa158015610641573d6000803e3d6000fd5b505050506040513d6000823e601f3d9081017fffffffffffffffffffffffffffffffffffffffffffffffffffffffffffffffe01682016040526106879190810190611c51565b610896565b6000546040517fe0876aa800000000000000000000000000000000000000000000000000000000815260206004820152601660248201527f67756e7a6970536372697074732d302e302e312e6a730000000000000000000060448201526107129173ffffffffffffffffffffffffffffffffffffffff169063e0876aa890606401610624565b61071b846108fd565b60405160200161013093929190611d79565b606083518015610828576003600282010460021b60405192507f4142434445464748494a4b4c4d4e4f505152535455565758595a616263646566601f526102308515027f6768696a6b6c6d6e6f707172737475767778797a303132333435363738392d5f03603f52602083018181015b6003880197508751603f8160121c1651600053603f81600c1c1651600153603f8160061c1651600253603f81165160035350600051825260048201915080821061079d576020016040527f3d3d000000000000000000000000000000000000000000000000000000000000600384066002048083039190915260008615159091029182900352900382525b509392505050565b8051604051818001600282019081526f30313233343536373839616263646566600f52918301906022015b81841461088657600184019350600f845116516001820153600f845160041c1651815360020161085b565b6000815260200160405250919050565b60208082015180516040519260008080805b858110156108de57602081026020018701519250602083015191506001823b039350836001868a01843c938301936001016108a8565b50505050602081038452601f19601f8201168401604052505050919050565b606061099461090b83610146565b831561094c576040518060400160405280600f81526020017f3b206c6574206d6f6465203d20303b0000000000000000000000000000000000815250610983565b6040518060400160405280600f81526020017f3b206c6574206d6f6465203d20313b00000000000000000000000000000000008152505b6040516020016100d1929190612c99565b6040516020016101309190612cf4565b6000602082840312156109b657600080fd5b5035919050565b60005b838110156109d85781810151838201526020016109c0565b50506000910152565b6020815260008251806020840152610a008160408501602087016109bd565b601f017fffffffffffffffffffffffffffffffffffffffffffffffffffffffffffffffe0169190910160400192915050565b60008151610a448185602086016109bd565b9290920192915050565b7f7b226e616d65223a223c200000000000000000000000000000000000000000008152600085516020610a8782600b8601838b016109bd565b7f203e222c00000000000000000000000000000000000000000000000000000000600b928501928301528654600f90600090600181811c9080831680610ace57607f831692505b8683108103610b04577f4e487b710000000000000000000000000000000000000000000000000000000085526022600452602485fd5b808015610b185760018114610b4f57610b80565b7fffffffffffffffffffffffffffffffffffffffffffffffffffffffffffffff008516878a01528684151585028a01019550610b80565b60008e81526020902060005b85811015610b765781548b82018a0152908401908901610b5b565b505086848a010195505b5050505050610bae817f22696d616765223a2200000000000000000000000000000000000000000000009052565b610bbb6009820189610a32565b9350505050610be9817f222c0000000000000000000000000000000000000000000000000000000000009052565b610bf66002820185610a32565b979650505050505050565b60008251610c138184602087016109bd565b9190910192915050565b7f646174613a6170706c69636174696f6e2f6a736f6e3b6261736536342c000000815260008251610c5581601d8501602087016109bd565b91909101601d0192915050565b7f3c21444f43545950452068746d6c3e3c68746d6c207374796c653d226865696781527f68743a20313030253b223e3c686561643e000000000000000000000000000000602082015260008251610cc08160318501602087016109bd565b7f3c2f686561643e3c626f6479207374796c653d226d617267696e3a20303b646960319390910192830152507f73706c61793a20666c65783b6a7573746966792d636f6e74656e743a2063656e60518201527f7465723b616c69676e2d6974656d733a2063656e7465723b6865696768743a2060718201527f313030253b223e3c2f626f64793e3c2f68746d6c3e0000000000000000000000609182015260a601919050565b7f22616e696d6174696f6e5f75726c223a22646174613a746578742f68746d6c3b81527f6261736536342c00000000000000000000000000000000000000000000000000602082015260008251610dc48160278501602087016109bd565b7f227d0000000000000000000000000000000000000000000000000000000000006027939091019283015250602901919050565b7f4e487b7100000000000000000000000000000000000000000000000000000000600052601160045260246000fd5b80820281158282048414176101b9576101b9610df8565b808201808211156101b9576101b9610df8565b60008851610e63818460208d016109bd565b80830190507f3c746578742066696c6c3d22234646462220666f6e742d73697a653d2232302281527f20666f6e742d66616d696c793d226d6f6e6f73706163652220783d223235302260208201527f20793d220000000000000000000000000000000000000000000000000000000060408201528851610eea816044840160208d016109bd565b7f2220746578742d616e63686f723d226d6964646c65223e000000000000000000604492909101918201528751610f2881605b840160208c016109bd565b7f3c616e696d617465206174747269627574654e616d653d226f70616369747922605b92909101918201527f2076616c7565733d22313b303b3122206475723d223173222072657065617443607b8201527f6f756e743d22696e646566696e697465222f3e3c2f746578743e3c7465787420609b8201527f66696c6c3d22234646462220666f6e742d73697a653d2232302220666f6e742d60bb8201527f66616d696c793d226d6f6e6f73706163652220783d223235302220793d22000060db820152610ff860f9820188610a32565b7f2220746578742d616e63686f723d226d6964646c65223e000000000000000000815290506110f76110f16110306017840189610a32565b7f3c616e696d617465206174747269627574654e616d653d226f7061636974792281527f2076616c7565733d22303b313b3022206475723d22317322207265706561744360208201527f6f756e743d22696e646566696e697465222f3e3c2f746578743e3c746578742060408201527f66696c6c3d22234646462220666f6e742d73697a653d2232302220666f6e742d60608201527f66616d696c793d226d6f6e6f73706163652220783d223235302220793d2200006080820152609e0190565b86610a32565b7f2220746578742d616e63686f723d226d6964646c65223e000000000000000000815290506111a161112c6017830186610a32565b7f3c616e696d617465206174747269627574654e616d653d226f7061636974792281527f2076616c7565733d22303b313b3022206475723d22327322207265706561744360208201527f6f756e743d22696e646566696e697465222f3e3c2f746578743e0000000000006040820152605a0190565b9a9950505050505050505050565b60007fffffffffffffffffffffffffffffffffffffffffffffffffffffffffffffffff82036111e0576111e0610df8565b5060010190565b600088516111f9818460208d016109bd565b80830190507f3c746578742066696c6c3d22233030302220666f6e742d73697a653d2238302281527f20666f6e742d66616d696c793d226d6f6e6f73706163652220783d223235302260208201527f20793d220000000000000000000000000000000000000000000000000000000060408201528851611280816044840160208d016109bd565b7f2220746578742d616e63686f723d226d6964646c65223e0000000000000000006044929091019182015287516112be81605b840160208c016109bd565b7f3c616e696d617465206174747269627574654e616d653d226f70616369747922605b92909101918201527f2076616c7565733d22313b303b3122206475723d223173222072657065617443607b8201527f6f756e743d22696e646566696e697465222f3e3c2f746578743e3c7465787420609b8201527f66696c6c3d22233030302220666f6e742d73697a653d2238302220666f6e742d60bb8201527f66616d696c793d226d6f6e6f73706163652220783d223235302220793d22000060db82015261138e60f9820188610a32565b7f2220746578742d616e63686f723d226d6964646c65223e000000000000000000815290506110f76110f16113c66017840189610a32565b7f3c616e696d617465206174747269627574654e616d653d226f7061636974792281527f2076616c7565733d22303b313b3022206475723d22317322207265706561744360208201527f6f756e743d22696e646566696e697465222f3e3c2f746578743e3c746578742060408201527f66696c6c3d22233030302220666f6e742d73697a653d2238302220666f6e742d60608201527f66616d696c793d226d6f6e6f73706163652220783d223235302220793d2200006080820152609e0190565b600082516114998184602087016109bd565b7f3c2f7376673e0000000000000000000000000000000000000000000000000000920191825250600601919050565b7f646174613a696d6167652f7376672b786d6c3b6261736536342c00000000000081526000825161150081601a8501602087016109bd565b91909101601a0192915050565b6000885161151f818460208d016109bd565b80830190507f3c746578742066696c6c3d22233030302220666f6e742d73697a653d2232302281527f20666f6e742d66616d696c793d226d6f6e6f73706163652220783d223235302260208201527f20793d2200000000000000000000000000000000000000000000000000000000604082015288516115a6816044840160208d016109bd565b7f2220746578742d616e63686f723d226d6964646c65223e0000000000000000006044929091019182015287516115e481605b840160208c016109bd565b7f3c616e696d617465206174747269627574654e616d653d226f70616369747922605b92909101918201527f2076616c7565733d22313b303b3122206475723d223273222072657065617443607b8201527f6f756e743d22696e646566696e697465222f3e3c2f746578743e3c7465787420609b8201527f66696c6c3d22233030302220666f6e742d73697a653d2232302220666f6e742d60bb8201527f66616d696c793d226d6f6e6f73706163652220783d223235302220793d22000060db8201526116b460f9820188610a32565b7f2220746578742d616e63686f723d226d6964646c65223e000000000000000000815290506117ad6110f16116ec6017840189610a32565b7f3c616e696d617465206174747269627574654e616d653d226f7061636974792281527f2076616c7565733d22303b313b3022206475723d22327322207265706561744360208201527f6f756e743d22696e646566696e697465222f3e3c2f746578743e3c746578742060408201527f66696c6c3d22233030302220666f6e742d73697a653d2232302220666f6e742d60608201527f66616d696c793d226d6f6e6f73706163652220783d223235302220793d2200006080820152609e0190565b7f2220746578742d616e63686f723d226d6964646c65223e000000000000000000815290506111a16117e26017830186610a32565b7f3c616e696d617465206174747269627574654e616d653d226f7061636974792281527f2076616c7565733d22303b313b3022206475723d22337322207265706561744360208201527f6f756e743d22696e646566696e697465222f3e3c2f746578743e0000000000006040820152605a0190565b60008851611869818460208d016109bd565b80830190507f3c746578742066696c6c3d22234646462220666f6e742d73697a653d2238302281527f20666f6e742d66616d696c793d226d6f6e6f73706163652220783d223235302260208201527f20793d2200000000000000000000000000000000000000000000000000000000604082015288516118f0816044840160208d016109bd565b7f2220746578742d616e63686f723d226d6964646c65223e00000000000000000060449290910191820152875161192e81605b840160208c016109bd565b7f3c616e696d617465206174747269627574654e616d653d226f70616369747922605b92909101918201527f2076616c7565733d22313b303b3122206475723d223273222072657065617443607b8201527f6f756e743d22696e646566696e697465222f3e3c2f746578743e3c7465787420609b8201527f66696c6c3d22234646462220666f6e742d73697a653d2238302220666f6e742d60bb8201527f66616d696c793d226d6f6e6f73706163652220783d223235302220793d22000060db8201526119fe60f9820188610a32565b7f2220746578742d616e63686f723d226d6964646c65223e000000000000000000815290506117ad6110f1611a366017840189610a32565b7f3c616e696d617465206174747269627574654e616d653d226f7061636974792281527f2076616c7565733d22303b313b3022206475723d22327322207265706561744360208201527f6f756e743d22696e646566696e697465222f3e3c2f746578743e3c746578742060408201527f66696c6c3d22234646462220666f6e742d73697a653d2238302220666f6e742d60608201527f66616d696c793d226d6f6e6f73706163652220783d223235302220793d2200006080820152609e0190565b60008251611b098184602087016109bd565b7f3c746578742066696c6c3d22234630302220666f6e742d73697a653d223830229201918252507f20666f6e742d66616d696c793d226d6f6e6f73706163652220783d223432302260208201527f20793d223237352220746578742d616e63686f723d226d6964646c65223e266c60408201527f743b202667743b3c2f746578743e3c2f7376673e0000000000000000000000006060820152607401919050565b7f4e487b7100000000000000000000000000000000000000000000000000000000600052604160045260246000fd5b6040805190810167ffffffffffffffff81118282101715611bfc57611bfc611baa565b60405290565b604051601f82017fffffffffffffffffffffffffffffffffffffffffffffffffffffffffffffffe016810167ffffffffffffffff81118282101715611c4957611c49611baa565b604052919050565b60006020808385031215611c6457600080fd5b825167ffffffffffffffff80821115611c7c57600080fd5b81850191506040808388031215611c9257600080fd5b611c9a611bd9565b835181528484015183811115611caf57600080fd5b80850194505087601f850112611cc457600080fd5b835183811115611cd657611cd6611baa565b611ce4868260051b01611c02565b818152868101945060069190911b850186019089821115611d0457600080fd5b948601945b81861015611d675783868b031215611d215760008081fd5b611d29611bd9565b865181528787015173ffffffffffffffffffffffffffffffffffffffff81168114611d545760008081fd5b8189015285529483019493860193611d09565b95820195909552979650505050505050565b7f3c73637269707420747970653d22746578742f6a6176617363726970742b677a81527f697022207372633d22646174613a746578742f6a6176617363726970743b626160208201527f736536342c000000000000000000000000000000000000000000000000000000604082015260008451611dfd8160458501602089016109bd565b7f223e3c2f7363726970743e00000000000000000000000000000000000000000060459184019182018190527f3c736372697074207372633d22646174613a746578742f6a617661736372697060508301527f743b6261736536342c000000000000000000000000000000000000000000000060708301526079820191508551611e8b818460208a016109bd565b919091019081528351611ea581600b8401602088016109bd565b8082019150507f223e3c2f7363726970743e3c736372697074207372633d22646174613a746578600b8201527f742f6a6176617363726970743b6261736536342c436d5a31626d4e3061573975602b8201527f49484e6c644856774b436b6765776f6749474e795a5746305a554e68626e5a68604b8201527f637967314d444173494455774d436b3743694167596d786c626d524e6232526c606b8201527f4b456842556b526654456c48534651704f776f6749473576553352796232746c608b8201527f4b436b3743694167636d46755a4739745532566c5a43687a5a57566b4b54734b60ab8201527f494342705a6968746232526c494430394944417065776f6749434167626d394d60cb8201527f623239774b436b3743694167665170394367706d6457356a64476c766269426b60eb8201527f636d46334b436b6765776f6749474a685932746e636d3931626d516f4d436b3761010b8201527f436941676157596f6257396b5a534139505341774b58734b4943416749484e3061012b8201527f5958496f4d5449314c4445794e5377794e5441704f776f67494341676333526861014b8201527f6369677a4e7a55734d7a63314c4449314d436b37436941674943427a6447467961016b8201527f4b444d334e5377784d6a55734d6a55774b54734b4943416749484e305958496f61018b8201527f4d5449314c444d334e5377794e5441704f79414b4943416749475a706248526c6101ab8201527f6369684a546c5a46556c5170436941676653426c62484e6c4948734b494341676101cb8201527f49474a685932746e636d3931626d516f4d436b37436941675a6d39794b485a686101eb8201527f63694270494430674d447367615341384944553749476b724b796c374369416761020b8201527f49434230636d6c68626d64735a5368795957356b6232306f4e4441774c44557761022b8201527f4d436b7349484a68626d5276625367304d4441734e5441774b537767636d467561024b8201527f5a4739744b4449774d43777a4d4441704c4342795957356b6232306f4d6a41778061026b8301527f4c444d774d436b7349484a68626d5276625367794d4441734d7a41774b5377678061028b8401527f636d46755a4739744b4449774d43777a4d4441704b54734b4943416749485279806102ab8501527f615746755a32786c4b484a68626d5276625367784d4441704c4342795957356b6102cb8501527f6232306f4d5441774b537767636d46755a4739744b4449774d43777a4d444170806102eb8601527f4c43416749484a68626d5276625367794d4441734d7a41774b537767636d46758061030b8701528461032b8701527f4c444d774d436b704f776f674943416764484a705957356e6247556f636d46758061034b8801527f5a4739744b4451774d4377314d4441704c4342795957356b6232306f4d54417761036b8801527f4b537767636d46755a4739744b4449774d43777a4d4441704c4342795957356b8061038b8901527f6232306f4d6a41774c444d774d436b7349484a68626d5276625367794d4441736103ab8901527f4d7a41774b537767636d46755a4739744b4449774d43777a4d4441704b54734b6103cb8901527f4943416749485279615746755a32786c4b484a68626d5276625367784d4441706103eb8901527f4c4342795957356b6232306f4e4441774c4455774d436b7349484a68626d527661040b8901527f625367794d4441734d7a41774b537767494342795957356b6232306f4d6a417761042b8901528561044b8901528461046b8901527f615746755a32786c4b484a68626d5276625367794d4441734d7a41774b53776761048b8901527f636d46755a4739744b4451774d4377314d4441704c4342795957356b6232306f6104ab8901527f4d6a41774c444d774d436b7349484a68626d5276625367794d4441734d7a41779450846104cb890152806104eb890152507f6232306f4d6a41774c444d774d436b704f776f674943416764484a705957356e61050b8801527f6247556f636d46755a4739744b4449774d43777a4d4441704c4342795957356b61052b8801528261054b8801528161056b8801528561058b880152806105ab8801525050507f5a4739744b4451774d4377314d4441704c4342795957356b6232306f4d6a41776105cb850152816105eb8501527f636d46755a4739744b4449774d43777a4d4441704c4342795957356b6232306f61060b8501528061062b8501525050507f4b536b374369416749434230636d6c68626d64735a5368795957356b6232306f61064b8201527f4d5441774b537767636d46755a4739744b4449774d43777a4d4441704c43427961066b8201527f5957356b6232306f4d6a41774c444d774d436b7349434167636d46755a47397461068b8201527f4b4449774d43777a4d4441704c4342795957356b6232306f4d6a41774c444d776106ab8201527f4d436b7349484a68626d5276625367794d4441734d7a41774b536b37436941676106cb8201527f4943426d615778305a58496f5355355752564a554b516f674948304b4943426d6106eb8201527f615778305a58496f5355355752564a554b516f674948304b66516f4b5a6e567561070b8201527f593352706232346763335268636968344c4342354c43427a4b58734b4943426d61072b8201527f6233496f646d467949476b67505341774f794270494477674e5473676153737261074b8201527f4b58734b49434167494849675053416f4b476b724d536b674b6941314d436b6761076b8201527f4c5342795957356b6232306f4d6a5531494330674b476b714e5441704b516f6761078b8201527f494341675a7941394943676f615373784b534171494455774b53417449484a686107ab8201527f626d5276625367794e5455674c53416f61536f314d436b7043694167494342696107cb8201527f494430674b4368704b7a457049436f674e54417049433067636d46755a4739746107eb8201527f4b4449314e534174494368704b6a55774b536b4b4943416749475a706247776f61080b8201527f6369786e4c4749704f776f4b494341674948686665694139494867674c53416f61082b8201527f637938794b516f6749434167654639764944306765463936494373674b484d7661084b8201527f4e436b4b494341674948686664434139494867674c53416f637938304b516f6761086b8201527f494341676546393061434139494867674b79416f637938304b516f674943416761088b8201527f6546396d61534139494867674b79416f637938794b516f67494341676546396d6108ab8201527f62794139494868665a6d6b674c53416f637938304b516f4b4943416749486c666108cb8201527f6569413949486b674c53416f637938794b516f674943416765563976494430676108eb8201527f65563936494373674b484d764e436b4b4943416749486c666443413949486b6761090b8201527f4c53416f637938304b516f6749434167655639306143413949486b674b79416f61092b8201527f637938304b516f67494341676556396d6153413949486b674b79416f6379387961094b8201527f4b516f67494341676556396d6279413949486c665a6d6b674c53416f6379383061096b8201527f4b516f4b4943416749485279615746755a32786c4b484a68626d52766253683461098b8201527f58325a764c43423458325a704b537767636d46755a4739744b486c665a6d38736109ab8201527f49486c665a6d6b704c4342795957356b6232306f654639304c486866644767706109cb8201527f4c4342795957356b6232306f655639304c486c66644767704c4342795957356b6109eb8201527f6232306f654639304c486866644767704c4342795957356b6232306f65563930610a0b8201527f4c486c66644767704b54734b494341674943416764484a705957356e6247556f610a2b8201527f636d46755a4739744b48686665697767654639764b537767636d46755a473974610a4b8201527f4b486c6665697767655639764b537767636d46755a4739744b48686664437834610a6b8201527f5833526f4b537767636d46755a4739744b486c66644378355833526f4b537767610a8b8201527f636d46755a4739744b486866644378345833526f4b537767636d46755a473974610aab8201527f4b486c66644378355833526f4b536b3743694167494341674948527961574675610acb8201527f5a32786c4b484a68626d52766253683458325a764c43423458325a704b537767610aeb8201527f636d46755a4739744b486c6665697767655639764b537767636d46755a473974610b0b8201527f4b486866644378345833526f4b537767636d46755a4739744b486c6664437835610b2b8201527f5833526f4b537767636d46755a4739744b486866644378345833526f4b537767610b4b8201527f636d46755a4739744b486c66644378355833526f4b536b374369416749434167610b6b8201527f49485279615746755a32786c4b484a68626d52766253683458336f7349486866610b8b8201527f62796b7349484a68626d52766253683558325a764c486c665a6d6b704c434279610bab8201527f5957356b6232306f654639304c486866644767704c4342795957356b6232306f610bcb8201527f655639304c486c66644767704c4342795957356b6232306f654639304c486866610beb8201527f644767704c4342795957356b6232306f655639304c486c66644767704b54734b610c0b8201527f4943416749416f67494341675a6d6c73644756794b456c4f566b565356436b4b610c2b8201527f49434239436e303d223e3c2f7363726970743e00000000000000000000000000610c4b820152610c5e8101915050949350505050565b7f6c65742073656564203d20000000000000000000000000000000000000000000815260008351612cd181600b8501602088016109bd565b835190830190612ce881600b8401602088016109bd565b01600b01949350505050565b7f3c736372697074207372633d22646174613a746578742f6a617661736372697081527f743b6261736536342c000000000000000000000000000000000000000000000060208201526000602982018351612d538183602088016109bd565b01939250505056fe3c737667206865696768743d22353030222077696474683d223530302220786d6c6e733d22687474703a2f2f7777772e77332e6f72672f323030302f737667223e3c7265637420783d22302220793d2230222077696474683d2235303022206865696768743d22353030222f3e3c737667206865696768743d22353030222077696474683d223530302220786d6c6e733d22687474703a2f2f7777772e77332e6f72672f323030302f737667223ea164736f6c6343000814000a226465736372697074696f6e223a22496e206120666172206177617920706172616c6c656c20756e69766572736520616e20616476616e63656420636976696c697a6174696f6e206275696c74206120636f6d70757465722061726f756e642061207374617220616e64206573636170656420696e746f20612073696d756c61746564207265616c6974792e20416674657220736f6d6520696d6d656173757261626c6520616d6f756e74206f662074696d65207468657365206661637473207765726520666f72676f7474656e20616e6420616674657220616e6f7468657220696d6d656173757261626c6520616d6f756e74206f662074696d652074686174207374617220626567616e20746f206469652e204576656e20736f2c206c69666520496e7369646520746869732073696d756c6174696f6e2070726f677265737365642c20616e64206f6e206f6e6520706c616e657420736f6d65206f662074686174206c6966652070726f6772657373656420656e6f75676820746f20666f726d206120676f7665726e6d656e742e20596f752061726520746865206e6577206d656d626572206f662061206d7973746572696f75732070726f6a65637420756e646572206120736563726574206167656e6379206f66207468697320676f7665726e6d656e74207265736561726368696e672074686520656c656d656e74617279207061727469636c65732074686174206d616b6520757020796f757220756e6976657273652e222c6102e060405261022c6080818152906200287a60a03960019062000024908262000120565b503480156200003257600080fd5b5060405162002aa638038062002aa68339810160408190526200005591620001ec565b600080546001600160a01b0319166001600160a01b03929092169190911790556200021e565b634e487b7160e01b600052604160045260246000fd5b600181811c90821680620000a657607f821691505b602082108103620000c757634e487b7160e01b600052602260045260246000fd5b50919050565b601f8211156200011b57600081815260208120601f850160051c81016020861015620000f65750805b601f850160051c820191505b81811015620001175782815560010162000102565b5050505b505050565b81516001600160401b038111156200013c576200013c6200007b565b62000154816200014d845462000091565b84620000cd565b602080601f8311600181146200018c5760008415620001735750858301515b600019600386901b1c1916600185901b17855562000117565b600085815260208120601f198616915b82811015620001bd578886015182559484019460019091019084016200019c565b5085821015620001dc5787850151600019600388901b60f8161c191681555b5050505050600190811b01905550565b600060208284031215620001ff57600080fd5b81516001600160a01b03811681146200021757600080fd5b9392505050565b61264c806200022e6000396000f3fe608060405234801561001057600080fd5b506004361061002b5760003560e01c8063f9cabb0914610030575b600080fd5b61004361003e3660046111d9565b610059565b60405161005091906112cd565b60405180910390f35b60606100f261006b8360000151610118565b600161007d856020015160001b61017a565b610086866101b9565b61008f876101e7565b6040516020016100a395949392919061133a565b604080517fffffffffffffffffffffffffffffffffffffffffffffffffffffffffffffffe0818403018152908290526100de916020016114f7565b6040516020818303038152906040526103b2565b6040516020016101029190611513565b6040516020818303038152906040529050919050565b60606080604051019050602081016040526000815280600019835b928101926030600a8206018453600a9004806101335750508190037fffffffffffffffffffffffffffffffffffffffffffffffffffffffffffffffe0909101908152919050565b60606000610187836103c6565b9050610192816103b2565b6040516020016101a29190611558565b604051602081830303815290604052915050919050565b60606101d76101c783610438565b6040516020016100a3919061159d565b60405160200161010291906116a1565b606060006101fb8360c0015160ff16610118565b6102088460400151610118565b604051602001610219929190611733565b604051602081830303815290604052905060008360a0015160ff161161025e578060405160200161024a919061182f565b60405160208183030381529060405261027f565b8060405160200161026f9190611896565b6040516020818303038152906040525b90506001836060015151116102b3578060405160200161029f91906118fd565b6040516020818303038152906040526102d4565b806040516020016102c49190611964565b6040516020818303038152906040525b60e084015190915060ff161561030757806040516020016102f591906119cb565b60405160208183030381529060405290505b82516103e81180156103245750825161032290606f90611a61565b155b1561035a57806103378460000151610118565b604051602001610348929190611a75565b60405160208183030381529060405290505b82516103699061045790611a61565b6000036103a1578061037e8460000151610118565b60405160200161038f929190611b1e565b60405160208183030381529060405290505b806040516020016101a29190611bc7565b60606103c08260008061064f565b92915050565b60606103d0610752565b6103db836000610833565b6103e6846001610833565b6103f1856002610833565b6103fc866003610833565b610407876004610833565b61040f6109bb565b61041889610a61565b610420610e95565b60405160200161010299989796959493929190611c08565b6000546040517fe0876aa800000000000000000000000000000000000000000000000000000000815260206004820152601360248201527f70352d76312e352e302e6d696e2e6a732e677a0000000000000000000000000060448201526060916105279173ffffffffffffffffffffffffffffffffffffffff9091169063e0876aa8906064015b600060405180830381865afa1580156104dc573d6000803e3d6000fd5b505050506040513d6000823e601f3d9081017fffffffffffffffffffffffffffffffffffffffffffffffffffffffffffffffe01682016040526105229190810190611cc9565b610f16565b6000546040517fe0876aa800000000000000000000000000000000000000000000000000000000815260206004820152601660248201527f67756e7a6970536372697074732d302e302e312e6a730000000000000000000060448201526105ad9173ffffffffffffffffffffffffffffffffffffffff169063e0876aa8906064016104bf565b6105b684610f7d565b6000546040517fe0876aa800000000000000000000000000000000000000000000000000000000815260206004820152600260248201527f3a29000000000000000000000000000000000000000000000000000000000000604482015261063c9173ffffffffffffffffffffffffffffffffffffffff169063e0876aa8906064016104bf565b6040516020016101029493929190611dd7565b60608351801561074a576003600282010460021b60405192507f4142434445464748494a4b4c4d4e4f505152535455565758595a616263646566601f526102308515027f6768696a6b6c6d6e6f707172737475767778797a303132333435363738392d5f03603f52602083018181015b6003880197508751603f8160121c1651600053603f81600c1c1651600153603f8160061c1651600253603f8116516003535060005182526004820191508082106106bf576020016040527f3d3d000000000000000000000000000000000000000000000000000000000000600384066002048083039190915260008615159091029182900352900382525b509392505050565b606060405160200161081f907f3c737667206865696768743d22323530222077696474683d223235302220786d81527f6c6e733d22687474703a2f2f7777772e77332e6f72672f323030302f7376672260208201527f3e0000000000000000000000000000000000000000000000000000000000000060408201527f3c646566733e000000000000000000000000000000000000000000000000000060418201527f3c72616469616c4772616469656e742069643d226d794772616469656e74223e604782015260670190565b604051602081830303815290604052905090565b60606000610858610845846014611fd0565b610850906005611ff3565b60ff16610118565b61088b85610867866006611fd0565b610872906000611ff3565b60ff16602081106108855761088561200c565b1a610118565b6108a58661089a876006611fd0565b610872906001611ff3565b6108bf876108b4886006611fd0565b610872906002611ff3565b6040516020016108d2949392919061203b565b604080517fffffffffffffffffffffffffffffffffffffffffffffffffffffffffffffffe08184030181529190529050600061091d610912856014611fd0565b61085090600f611ff3565b6109378661092c876006611fd0565b610872906003611ff3565b61095187610946886006611fd0565b610872906004611ff3565b61096b88610960896006611fd0565b610872906005611ff3565b60405160200161097e949392919061203b565b604051602081830303815290604052905081816040516020016109a2929190612143565b6040516020818303038152906040529250505092915050565b6040517f3c2f72616469616c4772616469656e743e00000000000000000000000000000060208201527f3c2f646566733e0000000000000000000000000000000000000000000000000060318201527f3c72656374206865696768743d22323530222077696474683d2232353022206660388201527f696c6c3d2223303030223e3c2f726563743e00000000000000000000000000006058820152606090606a0161081f565b6040805161024081018252600861020082018181527f262331303639363b00000000000000000000000000000000000000000000000061022084015282528251808401845260078082527f2623393733373b0000000000000000000000000000000000000000000000000060208084019190915280850192909252845180860186528181527f2623383835333b0000000000000000000000000000000000000000000000000081840152848601528451808601865260098082527f26233132383834323b000000000000000000000000000000000000000000000082850152606080870192909252865180880188528581527f262331303032333b000000000000000000000000000000000000000000000000818601526080870152865180880188528381527f2623393637323b000000000000000000000000000000000000000000000000008186015260a0870152865180880188528581527f262331303037303b0000000000000000000000000000000000000000000000008186015260c0870152865180880188528581527f262331303830333b0000000000000000000000000000000000000000000000008186015260e0870152865180880188528581527f262331303034303b00000000000000000000000000000000000000000000000081860152610100870152865180880188529485527f262331303035373b00000000000000000000000000000000000000000000000085850152610120860194909452855180870187529384527f26233132383737393b000000000000000000000000000000000000000000000084840152610140850193909352845180860186528181527f2623393838333b0000000000000000000000000000000000000000000000000081840152610160850152845180860186528181527f2623383235383b0000000000000000000000000000000000000000000000000081840152610180850152845180860186528181527f2623393733383b00000000000000000000000000000000000000000000000000818401526101a0850152845180860186528181527f2623393835343b00000000000000000000000000000000000000000000000000818401526101c0850152845180860190955284527f2623383537383b00000000000000000000000000000000000000000000000000908401526101e0820192909252600081600f851660108110610de157610de161200c565b60200201519050600082610df9601060f08816612172565b60ff1660108110610e0c57610e0c61200c565b6020020151905060008386601e1a600f1660108110610e2d57610e2d61200c565b60200201519050600084610e496010601e8a901a60f016612172565b60ff1660108110610e5c57610e5c61200c565b6020020151905083838383604051602001610e7a9493929190612194565b60405160208183030381529060405295505050505050919050565b606060405160200161081f907f3c636972636c652063783d22313235222063793d223132352220723d2231303081527f222066696c6c3d2275726c2827236d794772616469656e74272922202f3e000060208201527f3c2f7376673e0000000000000000000000000000000000000000000000000000603e82015260440190565b60208082015180516040519260008080805b85811015610f5e57602081026020018701519250602083015191506001823b039350836001868a01843c93830193600101610f28565b50505050602081038452601f19601f8201168401604052505050919050565b606061102a610fa1661fffffffffffff8460200151610f9c9190611a61565b610118565b610faa42610118565b8460600151610fe4661fffffffffffff8760800151610fc991906123f0565b73ffffffffffffffffffffffffffffffffffffffff16610118565b610ff48760a0015160ff16610118565b6110048860c0015160ff16610118565b6110148960e0015160ff16610118565b6040516020016100a39796959493929190612423565b60405160200161010291906125d8565b7f4e487b7100000000000000000000000000000000000000000000000000000000600052604160045260246000fd5b604051610100810167ffffffffffffffff8111828210171561108d5761108d61103a565b60405290565b6040805190810167ffffffffffffffff8111828210171561108d5761108d61103a565b604051601f82017fffffffffffffffffffffffffffffffffffffffffffffffffffffffffffffffe016810167ffffffffffffffff811182821017156110fd576110fd61103a565b604052919050565b600082601f83011261111657600080fd5b813567ffffffffffffffff8111156111305761113061103a565b61116160207fffffffffffffffffffffffffffffffffffffffffffffffffffffffffffffffe0601f840116016110b6565b81815284602083860101111561117657600080fd5b816020850160208301376000918101602001919091529392505050565b73ffffffffffffffffffffffffffffffffffffffff811681146111b557600080fd5b50565b80356111c381611193565b919050565b803560ff811681146111c357600080fd5b6000602082840312156111eb57600080fd5b813567ffffffffffffffff8082111561120357600080fd5b90830190610100828603121561121857600080fd5b611220611069565b82358152602083013560208201526040830135604082015260608301358281111561124a57600080fd5b61125687828601611105565b606083015250611268608084016111b8565b608082015261127960a084016111c8565b60a082015261128a60c084016111c8565b60c082015261129b60e084016111c8565b60e082015295945050505050565b60005b838110156112c45781810151838201526020016112ac565b50506000910152565b60208152600082518060208401526112ec8160408501602087016112a9565b601f017fffffffffffffffffffffffffffffffffffffffffffffffffffffffffffffffe0169190910160400192915050565b600081516113308185602086016112a9565b9290920192915050565b7f7b226e616d65223a223e3e3e2000000000000000000000000000000000000000815260008651602061137382600d8601838c016112a9565b7f203c3c3c222c0000000000000000000000000000000000000000000000000000600d928501928301528754601390600090600181811c90808316806113ba57607f831692505b86831081036113f0577f4e487b710000000000000000000000000000000000000000000000000000000085526022600452602485fd5b808015611404576001811461143b5761146c565b7fffffffffffffffffffffffffffffffffffffffffffffffffffffffffffffff008516878a01528684151585028a0101955061146c565b60008f81526020902060005b858110156114625781548b82018a0152908401908901611447565b505086848a010195505b505050505061149a817f22696d616765223a2200000000000000000000000000000000000000000000009052565b6114a7600982018a61131e565b93505050506114d5817f222c0000000000000000000000000000000000000000000000000000000000009052565b6114eb6114e5600283018761131e565b8561131e565b98975050505050505050565b600082516115098184602087016112a9565b9190910192915050565b7f646174613a6170706c69636174696f6e2f6a736f6e3b6261736536342c00000081526000825161154b81601d8501602087016112a9565b91909101601d0192915050565b7f646174613a696d6167652f7376672b786d6c3b6261736536342c00000000000081526000825161159081601a8501602087016112a9565b91909101601a0192915050565b7f3c21444f43545950452068746d6c3e3c68746d6c207374796c653d226865696781527f68743a20313030253b223e3c686561643e0000000000000000000000000000006020820152600082516115fb8160318501602087016112a9565b7f3c2f686561643e3c626f6479207374796c653d226d617267696e3a20303b646960319390910192830152507f73706c61793a20666c65783b6a7573746966792d636f6e74656e743a2063656e60518201527f7465723b616c69676e2d6974656d733a2063656e7465723b6865696768743a2060718201527f313030253b223e3c2f626f64793e3c2f68746d6c3e0000000000000000000000609182015260a601919050565b7f22616e696d6174696f6e5f75726c223a22646174613a746578742f68746d6c3b81527f6261736536342c000000000000000000000000000000000000000000000000006020820152600082516116ff8160278501602087016112a9565b7f222c0000000000000000000000000000000000000000000000000000000000006027939091019283015250602901919050565b7f2261747472696275746573223a205b7b2274726169745f74797065223a20224481527f65636179222c202276616c7565223a20000000000000000000000000000000006020820152600083516117918160308501602088016112a9565b80830190507f7d2c2000000000000000000000000000000000000000000000000000000000008060308301527f7b22646973706c61795f74797065223a20226e756d626572222c22747261697460338301527f5f74797065223a20225072657374696765222c202276616c7565223a200000006053830152845161181c8160708501602089016112a9565b6070920191820152607301949350505050565b600082516118418184602087016112a9565b7f7b2274726169745f74797065223a20225370696e222c202276616c7565223a209201918252507f22446f776e227d2c0000000000000000000000000000000000000000000000006020820152602801919050565b600082516118a88184602087016112a9565b7f7b2274726169745f74797065223a20225370696e222c202276616c7565223a209201918252507f225570227d2c00000000000000000000000000000000000000000000000000006020820152602601919050565b6000825161190f8184602087016112a9565b7f7b2274726169745f74797065223a2022507269736d222c202276616c7565223a9201918252507f20224f726967696e616c227d00000000000000000000000000000000000000006020820152602c01919050565b600082516119768184602087016112a9565b7f7b2274726169745f74797065223a2022507269736d222c202276616c7565223a9201918252507f2022416476616e636564227d00000000000000000000000000000000000000006020820152602c01919050565b600082516119dd8184602087016112a9565b7f2c207b2274726169745f74797065223a20225b52454441435445445d222c20229201918252507f76616c7565223a20225b52454441435445445d227d00000000000000000000006020820152603501919050565b7f4e487b7100000000000000000000000000000000000000000000000000000000600052601260045260246000fd5b600082611a7057611a70611a32565b500690565b60008351611a878184602088016112a9565b80830190507f2c207b2274726169745f74797065223a2022416e67656c222c202276616c756581527f223a20220000000000000000000000000000000000000000000000000000000060208201528351611ae88160248401602088016112a9565b7f227d00000000000000000000000000000000000000000000000000000000000060249290910191820152602601949350505050565b60008351611b308184602088016112a9565b80830190507f2c207b2274726169745f74797065223a2022487970657220416e67656c222c2081527f2276616c7565223a20220000000000000000000000000000000000000000000060208201528351611b9181602a8401602088016112a9565b7f227d000000000000000000000000000000000000000000000000000000000000602a9290910191820152602c01949350505050565b60008251611bd98184602087016112a9565b7f5d7d000000000000000000000000000000000000000000000000000000000000920191825250600201919050565b60008a51611c1a818460208f016112a9565b8a51611c2c8183860160208f016112a9565b8a519184010190611c41818360208e016112a9565b8951611c538183850160208e016112a9565b8951929091010190611c69818360208c016112a9565b8751611c7b8183850160208c016112a9565b8751929091010190611c91818360208a016112a9565b8551611ca38183850160208a016112a9565b8551929091010190611cb98183602088016112a9565b019b9a5050505050505050505050565b60006020808385031215611cdc57600080fd5b825167ffffffffffffffff80821115611cf457600080fd5b81850191506040808388031215611d0a57600080fd5b611d12611093565b835181528484015183811115611d2757600080fd5b80850194505087601f850112611d3c57600080fd5b835183811115611d4e57611d4e61103a565b611d5c868260051b016110b6565b818152868101945060069190911b850186019089821115611d7c57600080fd5b948601945b81861015611dc55783868b031215611d995760008081fd5b611da1611093565b8651815287870151611db281611193565b8189015285529483019493860193611d81565b95820195909552979650505050505050565b7f3c73637269707420747970653d22746578742f6a6176617363726970742b677a81527f697022207372633d22646174613a746578742f6a6176617363726970743b626160208201527f736536342c000000000000000000000000000000000000000000000000000000604082015260008551611e5b816045850160208a016112a9565b7f223e3c2f7363726970743e00000000000000000000000000000000000000000060459184019182018190527f3c736372697074207372633d22646174613a746578742f6a617661736372697060508301527f743b6261736536342c000000000000000000000000000000000000000000000060708301526079820191508651611ee9818460208b016112a9565b919091019081528451611f0381600b8401602089016112a9565b7f223e3c2f7363726970743e3c736372697074207372633d22646174613a746578600b92909101918201527f742f6a6176617363726970743b6261736536342c000000000000000000000000602b8201528351611f6781603f8401602088016112a9565b01611f94603f82017f223e3c2f7363726970743e0000000000000000000000000000000000000000009052565b604a019695505050505050565b7f4e487b7100000000000000000000000000000000000000000000000000000000600052601160045260246000fd5b60ff8181168382160290811690818114611fec57611fec611fa1565b5092915050565b60ff81811683821601908111156103c0576103c0611fa1565b7f4e487b7100000000000000000000000000000000000000000000000000000000600052603260045260246000fd5b7f3c73746f70206f66667365743d2200000000000000000000000000000000000081526000855161207381600e850160208a016112a9565b7f25222073746f702d636f6c6f723d227267622800000000000000000000000000600e9184019182015285516120b0816021840160208a016112a9565b8082019150507f2c0000000000000000000000000000000000000000000000000000000000000080602183015285516120f0816022850160208a016112a9565b6022920191820152835161210b8160238401602088016112a9565b7f2922202f3e000000000000000000000000000000000000000000000000000000602392909101918201526028019695505050505050565b600083516121558184602088016112a9565b8351908301906121698183602088016112a9565b01949350505050565b600060ff83168061218557612185611a32565b8060ff84160491505092915050565b60007f3c746578742066696c6c3d22236666666666662220666f6e742d73697a653d228083527f33302220666f6e742d66616d696c793d2256657264616e612220783d2233322260208401527f20793d2234322220746578742d616e63686f723d226d6964646c65223e0000006040840152865161221981605d860160208b016112a9565b80840190507f3c2f746578743e0000000000000000000000000000000000000000000000000080605d8301528260648301527f33302220666f6e742d66616d696c793d2256657264616e612220783d2232313860848301527f2220793d2234322220746578742d616e63686f723d226d6964646c65223e000060a4830152875192506122ac8360c2840160208b016112a9565b910160c28101919091527f3c746578742066696c6c3d22236666666666662220666f6e742d73697a653d2260c98201527f33302220666f6e742d66616d696c793d2256657264616e612220783d2233322260e98201527f20793d223232382220746578742d616e63686f723d226d6964646c65223e00006101098201526123e56123416123df61236a8261012786018a61131e565b7f3c2f746578743e00000000000000000000000000000000000000000000000000815260070190565b7f3c746578742066696c6c3d22236666666666662220666f6e742d73697a653d2281527f33302220666f6e742d66616d696c793d2256657264616e612220783d2232313860208201527f2220793d223232382220746578742d616e63686f723d226d6964646c65223e006040820152605f0190565b8661131e565b979650505050505050565b600073ffffffffffffffffffffffffffffffffffffffff8084168061241757612417611a32565b92169190910692915050565b7f6c65742073656564203d2000000000000000000000000000000000000000000081526000885161245b81600b850160208d016112a9565b7f3b206c65742074696d203d200000000000000000000000000000000000000000600b918401918201528851612498816017840160208d016112a9565b7f3b206c6574206172203d200000000000000000000000000000000000000000006017929091019182015287516124d6816022840160208c016112a9565b7f3b206c65742077616c203d2000000000000000000000000000000000000000006022929091019182015261250e602e82018861131e565b7f3b206c657420696e76203d20000000000000000000000000000000000000000081529050612540600c82018761131e565b7f3b206c6574206c766c203d20000000000000000000000000000000000000000081529050612572600c82018661131e565b7f3b206c657420617363203d200000000000000000000000000000000000000000815290506125a4600c82018561131e565b7f3b0000000000000000000000000000000000000000000000000000000000000081526001019a9950505050505050505050565b7f3c736372697074207372633d22646174613a746578742f6a617661736372697081527f743b6261736536342c0000000000000000000000000000000000000000000000602082015260006029820183516126378183602088016112a9565b01939250505056fea164736f6c6343000814000a226465736372697074696f6e223a22496e206120666172206177617920706172616c6c656c20756e69766572736520616e20616476616e63656420636976696c697a6174696f6e206275696c74206120636f6d70757465722061726f756e642061207374617220616e64206573636170656420696e746f20612073696d756c61746564207265616c6974792e20416674657220736f6d6520696d6d656173757261626c6520616d6f756e74206f662074696d65207468657365206661637473207765726520666f72676f7474656e20616e6420616674657220616e6f7468657220696d6d656173757261626c6520616d6f756e74206f662074696d652074686174207374617220626567616e20746f206469652e204576656e20736f2c206c69666520496e7369646520746869732073696d756c6174696f6e2070726f677265737365642c20616e64206f6e206f6e6520706c616e657420736f6d65206f662074686174206c6966652070726f6772657373656420656e6f75676820746f20666f726d206120676f7665726e6d656e742e20596f752061726520746865206e6577206d656d626572206f662061206d7973746572696f75732070726f6a65637420756e646572206120736563726574206167656e6379206f66207468697320676f7665726e6d656e74207265736561726368696e672074686520656c656d656e74617279207061727469636c65732074686174206d616b6520757020796f757220756e6976657273652e222c",
    "linkReferences": {}
  },
  "methodIdentifiers": {
    "anti()": "d61eec0f",
    "approve(address,uint256)": "095ea7b3",
    "balanceOf(address)": "70a08231",
    "claimAnti(uint256)": "1ff0fa34",
    "claimed(uint256)": "dbe7e3bd",
    "collide(uint256,string)": "302ae93d",
    "currentId()": "e00dd161",
    "getApproved(uint256)": "081812fc",
    "invert(uint256)": "7351ee37",
    "isApprovedForAll(address,address)": "e985e9c5",
    "level(uint256)": "05c58df2",
    "mint(uint256)": "a0712d68",
    "name()": "06fdde03",
    "observe(uint256,uint256[][])": "849ff37d",
    "owner()": "8da5cb5b",
    "ownerOf(uint256)": "6352211e",
    "prestige(uint256)": "83c901e3",
    "prism(uint256)": "36626b84",
    "program()": "c860ebc6",
    "redacted(uint256)": "948fee00",
    "research()": "136fe789",
    "royaltyInfo(uint256,uint256)": "2a55205a",
    "safeTransferFrom(address,address,uint256)": "42842e0e",
    "safeTransferFrom(address,address,uint256,bytes)": "b88d4fde",
    "seed(uint256)": "95564837",
    "setApprovalForAll(address,bool)": "a22cb465",
    "spin(uint256)": "a5b6ea8f",
    "startTime()": "78e97925",
    "supportsInterface(bytes4)": "01ffc9a7",
    "symbol()": "95d89b41",
    "tokenURI(uint256)": "c87b56dd",
    "transferFrom(address,address,uint256)": "23b872dd",
    "virtualAnti(uint256)": "a053a129",
    "withdraw()": "3ccfd60b",
    "xe(uint256)": "1f534889"
  },
  "id": 32
}