{
  "abi": [
    {
      "inputs": [
        {
          "internalType": "address",
          "name": "_fileStore",
          "type": "address"
        }
      ],
      "stateMutability": "nonpayable",
      "type": "constructor"
    },
    {
      "anonymous": false,
      "inputs": [
        {
          "indexed": true,
          "internalType": "address",
          "name": "owner",
          "type": "address"
        },
        {
          "indexed": true,
          "internalType": "address",
          "name": "operator",
          "type": "address"
        },
        {
          "indexed": false,
          "internalType": "bool",
          "name": "approved",
          "type": "bool"
        }
      ],
      "name": "ApprovalForAll",
      "type": "event"
    },
    {
      "anonymous": false,
      "inputs": [
        {
          "indexed": true,
          "internalType": "address",
          "name": "operator",
          "type": "address"
        },
        {
          "indexed": true,
          "internalType": "address",
          "name": "from",
          "type": "address"
        },
        {
          "indexed": true,
          "internalType": "address",
          "name": "to",
          "type": "address"
        },
        {
          "indexed": false,
          "internalType": "uint256[]",
          "name": "ids",
          "type": "uint256[]"
        },
        {
          "indexed": false,
          "internalType": "uint256[]",
          "name": "amounts",
          "type": "uint256[]"
        }
      ],
      "name": "TransferBatch",
      "type": "event"
    },
    {
      "anonymous": false,
      "inputs": [
        {
          "indexed": true,
          "internalType": "address",
          "name": "operator",
          "type": "address"
        },
        {
          "indexed": true,
          "internalType": "address",
          "name": "from",
          "type": "address"
        },
        {
          "indexed": true,
          "internalType": "address",
          "name": "to",
          "type": "address"
        },
        {
          "indexed": false,
          "internalType": "uint256",
          "name": "id",
          "type": "uint256"
        },
        {
          "indexed": false,
          "internalType": "uint256",
          "name": "amount",
          "type": "uint256"
        }
      ],
      "name": "TransferSingle",
      "type": "event"
    },
    {
      "anonymous": false,
      "inputs": [
        {
          "indexed": false,
          "internalType": "string",
          "name": "value",
          "type": "string"
        },
        {
          "indexed": true,
          "internalType": "uint256",
          "name": "id",
          "type": "uint256"
        }
      ],
      "name": "URI",
      "type": "event"
    },
    {
      "inputs": [
        {
          "internalType": "address",
          "name": "",
          "type": "address"
        },
        {
          "internalType": "uint256",
          "name": "",
          "type": "uint256"
        }
      ],
      "name": "balanceOf",
      "outputs": [
        {
          "internalType": "uint256",
          "name": "",
          "type": "uint256"
        }
      ],
      "stateMutability": "view",
      "type": "function"
    },
    {
      "inputs": [
        {
          "internalType": "address[]",
          "name": "owners",
          "type": "address[]"
        },
        {
          "internalType": "uint256[]",
          "name": "ids",
          "type": "uint256[]"
        }
      ],
      "name": "balanceOfBatch",
      "outputs": [
        {
          "internalType": "uint256[]",
          "name": "balances",
          "type": "uint256[]"
        }
      ],
      "stateMutability": "view",
      "type": "function"
    },
    {
      "inputs": [
        {
          "internalType": "address",
          "name": "",
          "type": "address"
        },
        {
          "internalType": "address",
          "name": "",
          "type": "address"
        }
      ],
      "name": "isApprovedForAll",
      "outputs": [
        {
          "internalType": "bool",
          "name": "",
          "type": "bool"
        }
      ],
      "stateMutability": "view",
      "type": "function"
    },
    {
      "inputs": [
        {
          "internalType": "address",
          "name": "to",
          "type": "address"
        },
        {
          "internalType": "uint256",
          "name": "id",
          "type": "uint256"
        }
      ],
      "name": "mint",
      "outputs": [],
      "stateMutability": "nonpayable",
      "type": "function"
    },
    {
      "inputs": [],
      "name": "name",
      "outputs": [
        {
          "internalType": "string",
          "name": "",
          "type": "string"
        }
      ],
      "stateMutability": "view",
      "type": "function"
    },
    {
      "inputs": [
        {
          "internalType": "address",
          "name": "from",
          "type": "address"
        },
        {
          "internalType": "address",
          "name": "to",
          "type": "address"
        },
        {
          "internalType": "uint256[]",
          "name": "ids",
          "type": "uint256[]"
        },
        {
          "internalType": "uint256[]",
          "name": "amounts",
          "type": "uint256[]"
        },
        {
          "internalType": "bytes",
          "name": "data",
          "type": "bytes"
        }
      ],
      "name": "safeBatchTransferFrom",
      "outputs": [],
      "stateMutability": "nonpayable",
      "type": "function"
    },
    {
      "inputs": [
        {
          "internalType": "address",
          "name": "from",
          "type": "address"
        },
        {
          "internalType": "address",
          "name": "to",
          "type": "address"
        },
        {
          "internalType": "uint256",
          "name": "id",
          "type": "uint256"
        },
        {
          "internalType": "uint256",
          "name": "amount",
          "type": "uint256"
        },
        {
          "internalType": "bytes",
          "name": "data",
          "type": "bytes"
        }
      ],
      "name": "safeTransferFrom",
      "outputs": [],
      "stateMutability": "nonpayable",
      "type": "function"
    },
    {
      "inputs": [
        {
          "internalType": "address",
          "name": "operator",
          "type": "address"
        },
        {
          "internalType": "bool",
          "name": "approved",
          "type": "bool"
        }
      ],
      "name": "setApprovalForAll",
      "outputs": [],
      "stateMutability": "nonpayable",
      "type": "function"
    },
    {
      "inputs": [
        {
          "internalType": "bytes4",
          "name": "interfaceId",
          "type": "bytes4"
        }
      ],
      "name": "supportsInterface",
      "outputs": [
        {
          "internalType": "bool",
          "name": "",
          "type": "bool"
        }
      ],
      "stateMutability": "view",
      "type": "function"
    },
    {
      "inputs": [],
      "name": "symbol",
      "outputs": [
        {
          "internalType": "string",
          "name": "",
          "type": "string"
        }
      ],
      "stateMutability": "view",
      "type": "function"
    },
    {
      "inputs": [
        {
          "internalType": "uint256",
          "name": "id",
          "type": "uint256"
        }
      ],
      "name": "uri",
      "outputs": [
        {
          "internalType": "string",
          "name": "",
          "type": "string"
        }
      ],
      "stateMutability": "view",
      "type": "function"
    }
  ],
  "bytecode": {
    "object": "0x610100604052601560c09081527f416e67656c204d6174746572205265736561726368000000000000000000000060e0526002906200003f9082620001a1565b506040805180820190915260038082526220a6a960e91b602083015290620000689082620001a1565b503480156200007657600080fd5b5060405162004ceb38038062004ceb83398101604081905262000099916200026d565b336080526040518190620000ad90620000ee565b6001600160a01b039091168152602001604051809103906000f080158015620000da573d6000803e3d6000fd5b506001600160a01b031660a052506200029f565b6132708062001a7b83390190565b634e487b7160e01b600052604160045260246000fd5b600181811c908216806200012757607f821691505b6020821081036200014857634e487b7160e01b600052602260045260246000fd5b50919050565b601f8211156200019c57600081815260208120601f850160051c81016020861015620001775750805b601f850160051c820191505b81811015620001985782815560010162000183565b5050505b505050565b81516001600160401b03811115620001bd57620001bd620000fc565b620001d581620001ce845462000112565b846200014e565b602080601f8311600181146200020d5760008415620001f45750858301515b600019600386901b1c1916600185901b17855562000198565b600085815260208120601f198616915b828110156200023e578886015182559484019460019091019084016200021d565b50858210156200025d5787850151600019600388901b60f8161c191681555b5050505050600190811b01905550565b6000602082840312156200028057600080fd5b81516001600160a01b03811681146200029857600080fd5b9392505050565b60805160a0516117b6620002c5600039600061039c0152600061084c01526117b66000f3fe608060405234801561001057600080fd5b50600436106100c85760003560e01c806340c10f1911610081578063a22cb4651161005b578063a22cb465146101a3578063e985e9c5146101b6578063f242432a146101e457600080fd5b806340c10f19146101685780634e1273f41461017b57806395d89b411461019b57600080fd5b806306fdde03116100b257806306fdde031461012b5780630e89341c146101405780632eb2c2d61461015357600080fd5b8062fdd58e146100cd57806301ffc9a714610108575b600080fd5b6100f56100db366004610fe4565b600060208181529281526040808220909352908152205481565b6040519081526020015b60405180910390f35b61011b61011636600461103f565b6101f7565b60405190151581526020016100ff565b6101336102dc565b6040516100ff91906110d1565b61013361014e3660046110e4565b61036a565b61016661016136600461118b565b61043e565b005b610166610176366004610fe4565b610834565b61018e610189366004611246565b610896565b6040516100ff91906112b2565b610133610a0d565b6101666101b13660046112f6565b610a1a565b61011b6101c4366004611332565b600160209081526000928352604080842090915290825290205460ff1681565b6101666101f2366004611365565b610ab1565b60007f01ffc9a7000000000000000000000000000000000000000000000000000000007fffffffff000000000000000000000000000000000000000000000000000000008316148061028a57507fd9b67a26000000000000000000000000000000000000000000000000000000007fffffffff000000000000000000000000000000000000000000000000000000008316145b806102d657507f0e89341c000000000000000000000000000000000000000000000000000000007fffffffff000000000000000000000000000000000000000000000000000000008316145b92915050565b600280546102e9906113dd565b80601f0160208091040260200160405190810160405280929190818152602001828054610315906113dd565b80156103625780601f1061033757610100808354040283529160200191610362565b820191906000526020600020905b81548152906001019060200180831161034557829003601f168201915b505050505081565b6040517f0e89341c000000000000000000000000000000000000000000000000000000008152600481018290526060907f000000000000000000000000000000000000000000000000000000000000000073ffffffffffffffffffffffffffffffffffffffff1690630e89341c90602401600060405180830381865afa1580156103f8573d6000803e3d6000fd5b505050506040513d6000823e601f3d9081017fffffffffffffffffffffffffffffffffffffffffffffffffffffffffffffffe01682016040526102d6919081019061145f565b8483146104ac576040517f08c379a000000000000000000000000000000000000000000000000000000000815260206004820152600f60248201527f4c454e4754485f4d49534d41544348000000000000000000000000000000000060448201526064015b60405180910390fd5b3373ffffffffffffffffffffffffffffffffffffffff89161480610500575073ffffffffffffffffffffffffffffffffffffffff8816600090815260016020908152604080832033845290915290205460ff165b610566576040517f08c379a000000000000000000000000000000000000000000000000000000000815260206004820152600e60248201527f4e4f545f415554484f52495a454400000000000000000000000000000000000060448201526064016104a3565b60008060005b8781101561063b578888828181106105865761058661152a565b9050602002013592508686828181106105a1576105a161152a565b73ffffffffffffffffffffffffffffffffffffffff8e16600090815260208181526040808320898452825282208054939091029490940135955085939250906105eb908490611588565b909155505073ffffffffffffffffffffffffffffffffffffffff8a166000908152602081815260408083208684529091528120805484929061062e90849061159b565b909155505060010161056c565b508873ffffffffffffffffffffffffffffffffffffffff168a73ffffffffffffffffffffffffffffffffffffffff163373ffffffffffffffffffffffffffffffffffffffff167f4a39dc06d4c0dbc64b70af90fd698a233a518aa5d07e595d983b8c0526c8f7fb8b8b8b8b6040516106b694939291906115f9565b60405180910390a473ffffffffffffffffffffffffffffffffffffffff89163b156107a8576040517fbc197c81000000000000000000000000000000000000000000000000000000008082529073ffffffffffffffffffffffffffffffffffffffff8b169063bc197c819061073d9033908f908e908e908e908e908e908e90600401611669565b6020604051808303816000875af115801561075c573d6000803e3d6000fd5b505050506040513d601f19601f8201168201806040525081019061078091906116da565b7fffffffff0000000000000000000000000000000000000000000000000000000016146107c2565b73ffffffffffffffffffffffffffffffffffffffff891615155b610828576040517f08c379a000000000000000000000000000000000000000000000000000000000815260206004820152601060248201527f554e534146455f524543495049454e540000000000000000000000000000000060448201526064016104a3565b50505050505050505050565b3373ffffffffffffffffffffffffffffffffffffffff7f0000000000000000000000000000000000000000000000000000000000000000161461087657600080fd5b6108928282600160405180602001604052806000815250610db7565b5050565b6060838214610901576040517f08c379a000000000000000000000000000000000000000000000000000000000815260206004820152600f60248201527f4c454e4754485f4d49534d41544348000000000000000000000000000000000060448201526064016104a3565b8367ffffffffffffffff81111561091a5761091a611430565b604051908082528060200260200182016040528015610943578160200160208202803683370190505b50905060005b84811015610a04576000808787848181106109665761096661152a565b905060200201602081019061097b91906116f7565b73ffffffffffffffffffffffffffffffffffffffff1673ffffffffffffffffffffffffffffffffffffffff16815260200190815260200160002060008585848181106109c9576109c961152a565b905060200201358152602001908152602001600020548282815181106109f1576109f161152a565b6020908102919091010152600101610949565b50949350505050565b600380546102e9906113dd565b33600081815260016020908152604080832073ffffffffffffffffffffffffffffffffffffffff87168085529083529281902080547fffffffffffffffffffffffffffffffffffffffffffffffffffffffffffffff001686151590811790915590519081529192917f17307eab39ab6107e8899845ad3d59bd9653f200f220920489ca2b5937696c31910160405180910390a35050565b3373ffffffffffffffffffffffffffffffffffffffff87161480610b05575073ffffffffffffffffffffffffffffffffffffffff8616600090815260016020908152604080832033845290915290205460ff165b610b6b576040517f08c379a000000000000000000000000000000000000000000000000000000000815260206004820152600e60248201527f4e4f545f415554484f52495a454400000000000000000000000000000000000060448201526064016104a3565b73ffffffffffffffffffffffffffffffffffffffff861660009081526020818152604080832087845290915281208054859290610ba9908490611588565b909155505073ffffffffffffffffffffffffffffffffffffffff851660009081526020818152604080832087845290915281208054859290610bec90849061159b565b9091555050604080518581526020810185905273ffffffffffffffffffffffffffffffffffffffff808816929089169133917fc3d58168c5ae7397731d063d5bbf3d657854427343f4c083240f7aacaa2d0f62910160405180910390a473ffffffffffffffffffffffffffffffffffffffff85163b15610d2f576040517ff23a6e61000000000000000000000000000000000000000000000000000000008082529073ffffffffffffffffffffffffffffffffffffffff87169063f23a6e6190610cc49033908b908a908a908a908a90600401611712565b6020604051808303816000875af1158015610ce3573d6000803e3d6000fd5b505050506040513d601f19601f82011682018060405250810190610d0791906116da565b7fffffffff000000000000000000000000000000000000000000000000000000001614610d49565b73ffffffffffffffffffffffffffffffffffffffff851615155b610daf576040517f08c379a000000000000000000000000000000000000000000000000000000000815260206004820152601060248201527f554e534146455f524543495049454e540000000000000000000000000000000060448201526064016104a3565b505050505050565b73ffffffffffffffffffffffffffffffffffffffff841660009081526020818152604080832086845290915281208054849290610df590849061159b565b9091555050604080518481526020810184905273ffffffffffffffffffffffffffffffffffffffff86169160009133917fc3d58168c5ae7397731d063d5bbf3d657854427343f4c083240f7aacaa2d0f62910160405180910390a473ffffffffffffffffffffffffffffffffffffffff84163b15610f35576040517ff23a6e61000000000000000000000000000000000000000000000000000000008082529073ffffffffffffffffffffffffffffffffffffffff86169063f23a6e6190610eca903390600090899089908990600401611764565b6020604051808303816000875af1158015610ee9573d6000803e3d6000fd5b505050506040513d601f19601f82011682018060405250810190610f0d91906116da565b7fffffffff000000000000000000000000000000000000000000000000000000001614610f4f565b73ffffffffffffffffffffffffffffffffffffffff841615155b610fb5576040517f08c379a000000000000000000000000000000000000000000000000000000000815260206004820152601060248201527f554e534146455f524543495049454e540000000000000000000000000000000060448201526064016104a3565b50505050565b803573ffffffffffffffffffffffffffffffffffffffff81168114610fdf57600080fd5b919050565b60008060408385031215610ff757600080fd5b61100083610fbb565b946020939093013593505050565b7fffffffff000000000000000000000000000000000000000000000000000000008116811461103c57600080fd5b50565b60006020828403121561105157600080fd5b813561105c8161100e565b9392505050565b60005b8381101561107e578181015183820152602001611066565b50506000910152565b6000815180845261109f816020860160208601611063565b601f017fffffffffffffffffffffffffffffffffffffffffffffffffffffffffffffffe0169290920160200192915050565b60208152600061105c6020830184611087565b6000602082840312156110f657600080fd5b5035919050565b60008083601f84011261110f57600080fd5b50813567ffffffffffffffff81111561112757600080fd5b6020830191508360208260051b850101111561114257600080fd5b9250929050565b60008083601f84011261115b57600080fd5b50813567ffffffffffffffff81111561117357600080fd5b60208301915083602082850101111561114257600080fd5b60008060008060008060008060a0898b0312156111a757600080fd5b6111b089610fbb565b97506111be60208a01610fbb565b9650604089013567ffffffffffffffff808211156111db57600080fd5b6111e78c838d016110fd565b909850965060608b013591508082111561120057600080fd5b61120c8c838d016110fd565b909650945060808b013591508082111561122557600080fd5b506112328b828c01611149565b999c989b5096995094979396929594505050565b6000806000806040858703121561125c57600080fd5b843567ffffffffffffffff8082111561127457600080fd5b611280888389016110fd565b9096509450602087013591508082111561129957600080fd5b506112a6878288016110fd565b95989497509550505050565b6020808252825182820181905260009190848201906040850190845b818110156112ea578351835292840192918401916001016112ce565b50909695505050505050565b6000806040838503121561130957600080fd5b61131283610fbb565b91506020830135801515811461132757600080fd5b809150509250929050565b6000806040838503121561134557600080fd5b61134e83610fbb565b915061135c60208401610fbb565b90509250929050565b60008060008060008060a0878903121561137e57600080fd5b61138787610fbb565b955061139560208801610fbb565b94506040870135935060608701359250608087013567ffffffffffffffff8111156113bf57600080fd5b6113cb89828a01611149565b979a9699509497509295939492505050565b600181811c908216806113f157607f821691505b60208210810361142a577f4e487b7100000000000000000000000000000000000000000000000000000000600052602260045260246000fd5b50919050565b7f4e487b7100000000000000000000000000000000000000000000000000000000600052604160045260246000fd5b60006020828403121561147157600080fd5b815167ffffffffffffffff8082111561148957600080fd5b818401915084601f83011261149d57600080fd5b8151818111156114af576114af611430565b604051601f82017fffffffffffffffffffffffffffffffffffffffffffffffffffffffffffffffe0908116603f011681019083821181831017156114f5576114f5611430565b8160405282815287602084870101111561150e57600080fd5b61151f836020830160208801611063565b979650505050505050565b7f4e487b7100000000000000000000000000000000000000000000000000000000600052603260045260246000fd5b7f4e487b7100000000000000000000000000000000000000000000000000000000600052601160045260246000fd5b818103818111156102d6576102d6611559565b808201808211156102d6576102d6611559565b81835260007f07ffffffffffffffffffffffffffffffffffffffffffffffffffffffffffffff8311156115e057600080fd5b8260051b80836020870137939093016020019392505050565b60408152600061160d6040830186886115ae565b828103602084015261151f8185876115ae565b8183528181602085013750600060208284010152600060207fffffffffffffffffffffffffffffffffffffffffffffffffffffffffffffffe0601f840116840101905092915050565b600073ffffffffffffffffffffffffffffffffffffffff808b168352808a1660208401525060a060408301526116a360a08301888a6115ae565b82810360608401526116b68187896115ae565b905082810360808401526116cb818587611620565b9b9a5050505050505050505050565b6000602082840312156116ec57600080fd5b815161105c8161100e565b60006020828403121561170957600080fd5b61105c82610fbb565b600073ffffffffffffffffffffffffffffffffffffffff808916835280881660208401525085604083015284606083015260a0608083015261175860a083018486611620565b98975050505050505050565b600073ffffffffffffffffffffffffffffffffffffffff808816835280871660208401525084604083015283606083015260a0608083015261151f60a083018461108756fea164736f6c6343000814000a6102e060405261022c6080818152906200304460a03960019062000024908262000120565b503480156200003257600080fd5b5060405162003270380380620032708339810160408190526200005591620001ec565b600080546001600160a01b0319166001600160a01b03929092169190911790556200021e565b634e487b7160e01b600052604160045260246000fd5b600181811c90821680620000a657607f821691505b602082108103620000c757634e487b7160e01b600052602260045260246000fd5b50919050565b601f8211156200011b57600081815260208120601f850160051c81016020861015620000f65750805b601f850160051c820191505b81811015620001175782815560010162000102565b5050505b505050565b81516001600160401b038111156200013c576200013c6200007b565b62000154816200014d845462000091565b84620000cd565b602080601f8311600181146200018c5760008415620001735750858301515b600019600386901b1c1916600185901b17855562000117565b600085815260208120601f198616915b82811015620001bd578886015182559484019460019091019084016200019c565b5085821015620001dc5787850151600019600388901b60f8161c191681555b5050505050600190811b01905550565b600060208284031215620001ff57600080fd5b81516001600160a01b03811681146200021757600080fd5b9392505050565b612e16806200022e6000396000f3fe608060405234801561001057600080fd5b506004361061002b5760003560e01c80630e89341c14610030575b600080fd5b61004361003e3660046109a4565b610059565b60405161005091906109e1565b60405180910390f35b6060610120600083116100a1576040518060400160405280600381526020017f2e2e2e00000000000000000000000000000000000000000000000000000000008152506100aa565b6100aa83610146565b60016100b5856101a8565b6100be866101c8565b6040516020016100d19493929190610a4e565b604080517fffffffffffffffffffffffffffffffffffffffffffffffffffffffffffffffe08184030181529082905261010c91602001610c01565b6040516020818303038152906040526101f6565b6040516020016101309190610c1d565b6040516020818303038152906040529050919050565b60606080604051019050602081016040526000815280600019835b928101926030600a8206018453600a9004806101615750508190037fffffffffffffffffffffffffffffffffffffffffffffffffffffffffffffffe0909101908152919050565b606081156101bf576101b982610204565b92915050565b6101b98261044f565b60606101e66101d68361059d565b6040516020016100d19190610c62565b6040516020016101309190610d66565b60606101b98260008061072d565b606060006040518060a00160405280606d8152602001612d5c606d9139905060005b601a81101561036257600061024f61023f836014610e27565b61024a90600a610e3e565b610146565b905082816102e9848860405160200161026a91815260200190565b6040516020818303038152906040528051906020012060405160200161029a929190918252602082015260400190565b604080517fffffffffffffffffffffffffffffffffffffffffffffffffffffffffffffffe081840301815282825280516020918201209083015201604051602081830303815290604052610830565b836103096102f8876001610e3e565b60408051602081018d90520161026a565b85610329610318896002610e3e565b60408051602081018f90520161026a565b60405160200161033f9796959493929190610e51565b6040516020818303038152906040529250508061035b906111af565b9050610226565b5060005b600b8110156103fc57600061038a61037f836032610e27565b61024a906019610e3e565b905082816103a5848860405160200161026a91815260200190565b836103b46102f8876001610e3e565b856103c3610318896002610e3e565b6040516020016103d997969594939291906111e7565b604051602081830303815290604052925050806103f5906111af565b9050610366565b508060405160200161040e9190611487565b6040516020818303038152906040529050610428816101f6565b60405160200161043891906114c8565b604051602081830303815290604052915050919050565b60606000604051806080016040528060418152602001612dc960419139905060005b601a8110156104fc57600061048a61023f836014610e27565b905082816104a5848860405160200161026a91815260200190565b836104b46102f8876001610e3e565b856104c3610318896002610e3e565b6040516020016104d9979695949392919061150d565b604051602081830303815290604052925050806104f5906111af565b9050610471565b5060005b600b81101561058b57600061051961037f836032610e27565b90508281610534848860405160200161026a91815260200190565b836105436102f8876001610e3e565b85610552610318896002610e3e565b6040516020016105689796959493929190611857565b60405160208183030381529060405292505080610584906111af565b9050610500565b508060405160200161040e9190611af7565b6000546040517fe0876aa800000000000000000000000000000000000000000000000000000000815260206004820152601360248201527f70352d76312e352e302e6d696e2e6a732e677a00000000000000000000000000604482015260609161068c9173ffffffffffffffffffffffffffffffffffffffff9091169063e0876aa8906064015b600060405180830381865afa158015610641573d6000803e3d6000fd5b505050506040513d6000823e601f3d9081017fffffffffffffffffffffffffffffffffffffffffffffffffffffffffffffffe01682016040526106879190810190611c51565b610896565b6000546040517fe0876aa800000000000000000000000000000000000000000000000000000000815260206004820152601660248201527f67756e7a6970536372697074732d302e302e312e6a730000000000000000000060448201526107129173ffffffffffffffffffffffffffffffffffffffff169063e0876aa890606401610624565b61071b846108fd565b60405160200161013093929190611d79565b606083518015610828576003600282010460021b60405192507f4142434445464748494a4b4c4d4e4f505152535455565758595a616263646566601f526102308515027f6768696a6b6c6d6e6f707172737475767778797a303132333435363738392d5f03603f52602083018181015b6003880197508751603f8160121c1651600053603f81600c1c1651600153603f8160061c1651600253603f81165160035350600051825260048201915080821061079d576020016040527f3d3d000000000000000000000000000000000000000000000000000000000000600384066002048083039190915260008615159091029182900352900382525b509392505050565b8051604051818001600282019081526f30313233343536373839616263646566600f52918301906022015b81841461088657600184019350600f845116516001820153600f845160041c1651815360020161085b565b6000815260200160405250919050565b60208082015180516040519260008080805b858110156108de57602081026020018701519250602083015191506001823b039350836001868a01843c938301936001016108a8565b50505050602081038452601f19601f8201168401604052505050919050565b606061099461090b83610146565b831561094c576040518060400160405280600f81526020017f3b206c6574206d6f6465203d20303b0000000000000000000000000000000000815250610983565b6040518060400160405280600f81526020017f3b206c6574206d6f6465203d20313b00000000000000000000000000000000008152505b6040516020016100d1929190612c99565b6040516020016101309190612cf4565b6000602082840312156109b657600080fd5b5035919050565b60005b838110156109d85781810151838201526020016109c0565b50506000910152565b6020815260008251806020840152610a008160408501602087016109bd565b601f017fffffffffffffffffffffffffffffffffffffffffffffffffffffffffffffffe0169190910160400192915050565b60008151610a448185602086016109bd565b9290920192915050565b7f7b226e616d65223a223c200000000000000000000000000000000000000000008152600085516020610a8782600b8601838b016109bd565b7f203e222c00000000000000000000000000000000000000000000000000000000600b928501928301528654600f90600090600181811c9080831680610ace57607f831692505b8683108103610b04577f4e487b710000000000000000000000000000000000000000000000000000000085526022600452602485fd5b808015610b185760018114610b4f57610b80565b7fffffffffffffffffffffffffffffffffffffffffffffffffffffffffffffff008516878a01528684151585028a01019550610b80565b60008e81526020902060005b85811015610b765781548b82018a0152908401908901610b5b565b505086848a010195505b5050505050610bae817f22696d616765223a2200000000000000000000000000000000000000000000009052565b610bbb6009820189610a32565b9350505050610be9817f222c0000000000000000000000000000000000000000000000000000000000009052565b610bf66002820185610a32565b979650505050505050565b60008251610c138184602087016109bd565b9190910192915050565b7f646174613a6170706c69636174696f6e2f6a736f6e3b6261736536342c000000815260008251610c5581601d8501602087016109bd565b91909101601d0192915050565b7f3c21444f43545950452068746d6c3e3c68746d6c207374796c653d226865696781527f68743a20313030253b223e3c686561643e000000000000000000000000000000602082015260008251610cc08160318501602087016109bd565b7f3c2f686561643e3c626f6479207374796c653d226d617267696e3a20303b646960319390910192830152507f73706c61793a20666c65783b6a7573746966792d636f6e74656e743a2063656e60518201527f7465723b616c69676e2d6974656d733a2063656e7465723b6865696768743a2060718201527f313030253b223e3c2f626f64793e3c2f68746d6c3e0000000000000000000000609182015260a601919050565b7f22616e696d6174696f6e5f75726c223a22646174613a746578742f68746d6c3b81527f6261736536342c00000000000000000000000000000000000000000000000000602082015260008251610dc48160278501602087016109bd565b7f227d0000000000000000000000000000000000000000000000000000000000006027939091019283015250602901919050565b7f4e487b7100000000000000000000000000000000000000000000000000000000600052601160045260246000fd5b80820281158282048414176101b9576101b9610df8565b808201808211156101b9576101b9610df8565b60008851610e63818460208d016109bd565b80830190507f3c746578742066696c6c3d22234646462220666f6e742d73697a653d2232302281527f20666f6e742d66616d696c793d226d6f6e6f73706163652220783d223235302260208201527f20793d220000000000000000000000000000000000000000000000000000000060408201528851610eea816044840160208d016109bd565b7f2220746578742d616e63686f723d226d6964646c65223e000000000000000000604492909101918201528751610f2881605b840160208c016109bd565b7f3c616e696d617465206174747269627574654e616d653d226f70616369747922605b92909101918201527f2076616c7565733d22313b303b3122206475723d223173222072657065617443607b8201527f6f756e743d22696e646566696e697465222f3e3c2f746578743e3c7465787420609b8201527f66696c6c3d22234646462220666f6e742d73697a653d2232302220666f6e742d60bb8201527f66616d696c793d226d6f6e6f73706163652220783d223235302220793d22000060db820152610ff860f9820188610a32565b7f2220746578742d616e63686f723d226d6964646c65223e000000000000000000815290506110f76110f16110306017840189610a32565b7f3c616e696d617465206174747269627574654e616d653d226f7061636974792281527f2076616c7565733d22303b313b3022206475723d22317322207265706561744360208201527f6f756e743d22696e646566696e697465222f3e3c2f746578743e3c746578742060408201527f66696c6c3d22234646462220666f6e742d73697a653d2232302220666f6e742d60608201527f66616d696c793d226d6f6e6f73706163652220783d223235302220793d2200006080820152609e0190565b86610a32565b7f2220746578742d616e63686f723d226d6964646c65223e000000000000000000815290506111a161112c6017830186610a32565b7f3c616e696d617465206174747269627574654e616d653d226f7061636974792281527f2076616c7565733d22303b313b3022206475723d22327322207265706561744360208201527f6f756e743d22696e646566696e697465222f3e3c2f746578743e0000000000006040820152605a0190565b9a9950505050505050505050565b60007fffffffffffffffffffffffffffffffffffffffffffffffffffffffffffffffff82036111e0576111e0610df8565b5060010190565b600088516111f9818460208d016109bd565b80830190507f3c746578742066696c6c3d22233030302220666f6e742d73697a653d2238302281527f20666f6e742d66616d696c793d226d6f6e6f73706163652220783d223235302260208201527f20793d220000000000000000000000000000000000000000000000000000000060408201528851611280816044840160208d016109bd565b7f2220746578742d616e63686f723d226d6964646c65223e0000000000000000006044929091019182015287516112be81605b840160208c016109bd565b7f3c616e696d617465206174747269627574654e616d653d226f70616369747922605b92909101918201527f2076616c7565733d22313b303b3122206475723d223173222072657065617443607b8201527f6f756e743d22696e646566696e697465222f3e3c2f746578743e3c7465787420609b8201527f66696c6c3d22233030302220666f6e742d73697a653d2238302220666f6e742d60bb8201527f66616d696c793d226d6f6e6f73706163652220783d223235302220793d22000060db82015261138e60f9820188610a32565b7f2220746578742d616e63686f723d226d6964646c65223e000000000000000000815290506110f76110f16113c66017840189610a32565b7f3c616e696d617465206174747269627574654e616d653d226f7061636974792281527f2076616c7565733d22303b313b3022206475723d22317322207265706561744360208201527f6f756e743d22696e646566696e697465222f3e3c2f746578743e3c746578742060408201527f66696c6c3d22233030302220666f6e742d73697a653d2238302220666f6e742d60608201527f66616d696c793d226d6f6e6f73706163652220783d223235302220793d2200006080820152609e0190565b600082516114998184602087016109bd565b7f3c2f7376673e0000000000000000000000000000000000000000000000000000920191825250600601919050565b7f646174613a696d6167652f7376672b786d6c3b6261736536342c00000000000081526000825161150081601a8501602087016109bd565b91909101601a0192915050565b6000885161151f818460208d016109bd565b80830190507f3c746578742066696c6c3d22233030302220666f6e742d73697a653d2232302281527f20666f6e742d66616d696c793d226d6f6e6f73706163652220783d223235302260208201527f20793d2200000000000000000000000000000000000000000000000000000000604082015288516115a6816044840160208d016109bd565b7f2220746578742d616e63686f723d226d6964646c65223e0000000000000000006044929091019182015287516115e481605b840160208c016109bd565b7f3c616e696d617465206174747269627574654e616d653d226f70616369747922605b92909101918201527f2076616c7565733d22313b303b3122206475723d223273222072657065617443607b8201527f6f756e743d22696e646566696e697465222f3e3c2f746578743e3c7465787420609b8201527f66696c6c3d22233030302220666f6e742d73697a653d2232302220666f6e742d60bb8201527f66616d696c793d226d6f6e6f73706163652220783d223235302220793d22000060db8201526116b460f9820188610a32565b7f2220746578742d616e63686f723d226d6964646c65223e000000000000000000815290506117ad6110f16116ec6017840189610a32565b7f3c616e696d617465206174747269627574654e616d653d226f7061636974792281527f2076616c7565733d22303b313b3022206475723d22327322207265706561744360208201527f6f756e743d22696e646566696e697465222f3e3c2f746578743e3c746578742060408201527f66696c6c3d22233030302220666f6e742d73697a653d2232302220666f6e742d60608201527f66616d696c793d226d6f6e6f73706163652220783d223235302220793d2200006080820152609e0190565b7f2220746578742d616e63686f723d226d6964646c65223e000000000000000000815290506111a16117e26017830186610a32565b7f3c616e696d617465206174747269627574654e616d653d226f7061636974792281527f2076616c7565733d22303b313b3022206475723d22337322207265706561744360208201527f6f756e743d22696e646566696e697465222f3e3c2f746578743e0000000000006040820152605a0190565b60008851611869818460208d016109bd565b80830190507f3c746578742066696c6c3d22234646462220666f6e742d73697a653d2238302281527f20666f6e742d66616d696c793d226d6f6e6f73706163652220783d223235302260208201527f20793d2200000000000000000000000000000000000000000000000000000000604082015288516118f0816044840160208d016109bd565b7f2220746578742d616e63686f723d226d6964646c65223e00000000000000000060449290910191820152875161192e81605b840160208c016109bd565b7f3c616e696d617465206174747269627574654e616d653d226f70616369747922605b92909101918201527f2076616c7565733d22313b303b3122206475723d223273222072657065617443607b8201527f6f756e743d22696e646566696e697465222f3e3c2f746578743e3c7465787420609b8201527f66696c6c3d22234646462220666f6e742d73697a653d2238302220666f6e742d60bb8201527f66616d696c793d226d6f6e6f73706163652220783d223235302220793d22000060db8201526119fe60f9820188610a32565b7f2220746578742d616e63686f723d226d6964646c65223e000000000000000000815290506117ad6110f1611a366017840189610a32565b7f3c616e696d617465206174747269627574654e616d653d226f7061636974792281527f2076616c7565733d22303b313b3022206475723d22327322207265706561744360208201527f6f756e743d22696e646566696e697465222f3e3c2f746578743e3c746578742060408201527f66696c6c3d22234646462220666f6e742d73697a653d2238302220666f6e742d60608201527f66616d696c793d226d6f6e6f73706163652220783d223235302220793d2200006080820152609e0190565b60008251611b098184602087016109bd565b7f3c746578742066696c6c3d22234630302220666f6e742d73697a653d223830229201918252507f20666f6e742d66616d696c793d226d6f6e6f73706163652220783d223432302260208201527f20793d223237352220746578742d616e63686f723d226d6964646c65223e266c60408201527f743b202667743b3c2f746578743e3c2f7376673e0000000000000000000000006060820152607401919050565b7f4e487b7100000000000000000000000000000000000000000000000000000000600052604160045260246000fd5b6040805190810167ffffffffffffffff81118282101715611bfc57611bfc611baa565b60405290565b604051601f82017fffffffffffffffffffffffffffffffffffffffffffffffffffffffffffffffe016810167ffffffffffffffff81118282101715611c4957611c49611baa565b604052919050565b60006020808385031215611c6457600080fd5b825167ffffffffffffffff80821115611c7c57600080fd5b81850191506040808388031215611c9257600080fd5b611c9a611bd9565b835181528484015183811115611caf57600080fd5b80850194505087601f850112611cc457600080fd5b835183811115611cd657611cd6611baa565b611ce4868260051b01611c02565b818152868101945060069190911b850186019089821115611d0457600080fd5b948601945b81861015611d675783868b031215611d215760008081fd5b611d29611bd9565b865181528787015173ffffffffffffffffffffffffffffffffffffffff81168114611d545760008081fd5b8189015285529483019493860193611d09565b95820195909552979650505050505050565b7f3c73637269707420747970653d22746578742f6a6176617363726970742b677a81527f697022207372633d22646174613a746578742f6a6176617363726970743b626160208201527f736536342c000000000000000000000000000000000000000000000000000000604082015260008451611dfd8160458501602089016109bd565b7f223e3c2f7363726970743e00000000000000000000000000000000000000000060459184019182018190527f3c736372697074207372633d22646174613a746578742f6a617661736372697060508301527f743b6261736536342c000000000000000000000000000000000000000000000060708301526079820191508551611e8b818460208a016109bd565b919091019081528351611ea581600b8401602088016109bd565b8082019150507f223e3c2f7363726970743e3c736372697074207372633d22646174613a746578600b8201527f742f6a6176617363726970743b6261736536342c436d5a31626d4e3061573975602b8201527f49484e6c644856774b436b6765776f6749474e795a5746305a554e68626e5a68604b8201527f637967314d444173494455774d436b3743694167596d786c626d524e6232526c606b8201527f4b456842556b526654456c48534651704f776f6749473576553352796232746c608b8201527f4b436b3743694167636d46755a4739745532566c5a43687a5a57566b4b54734b60ab8201527f494342705a6968746232526c494430394944417065776f6749434167626d394d60cb8201527f623239774b436b3743694167665170394367706d6457356a64476c766269426b60eb8201527f636d46334b436b6765776f6749474a685932746e636d3931626d516f4d436b3761010b8201527f436941676157596f6257396b5a534139505341774b58734b4943416749484e3061012b8201527f5958496f4d5449314c4445794e5377794e5441704f776f67494341676333526861014b8201527f6369677a4e7a55734d7a63314c4449314d436b37436941674943427a6447467961016b8201527f4b444d334e5377784d6a55734d6a55774b54734b4943416749484e305958496f61018b8201527f4d5449314c444d334e5377794e5441704f79414b4943416749475a706248526c6101ab8201527f6369684a546c5a46556c5170436941676653426c62484e6c4948734b494341676101cb8201527f49474a685932746e636d3931626d516f4d436b37436941675a6d39794b485a686101eb8201527f63694270494430674d447367615341384944553749476b724b796c374369416761020b8201527f49434230636d6c68626d64735a5368795957356b6232306f4e4441774c44557761022b8201527f4d436b7349484a68626d5276625367304d4441734e5441774b537767636d467561024b8201527f5a4739744b4449774d43777a4d4441704c4342795957356b6232306f4d6a41778061026b8301527f4c444d774d436b7349484a68626d5276625367794d4441734d7a41774b5377678061028b8401527f636d46755a4739744b4449774d43777a4d4441704b54734b4943416749485279806102ab8501527f615746755a32786c4b484a68626d5276625367784d4441704c4342795957356b6102cb8501527f6232306f4d5441774b537767636d46755a4739744b4449774d43777a4d444170806102eb8601527f4c43416749484a68626d5276625367794d4441734d7a41774b537767636d46758061030b8701528461032b8701527f4c444d774d436b704f776f674943416764484a705957356e6247556f636d46758061034b8801527f5a4739744b4451774d4377314d4441704c4342795957356b6232306f4d54417761036b8801527f4b537767636d46755a4739744b4449774d43777a4d4441704c4342795957356b8061038b8901527f6232306f4d6a41774c444d774d436b7349484a68626d5276625367794d4441736103ab8901527f4d7a41774b537767636d46755a4739744b4449774d43777a4d4441704b54734b6103cb8901527f4943416749485279615746755a32786c4b484a68626d5276625367784d4441706103eb8901527f4c4342795957356b6232306f4e4441774c4455774d436b7349484a68626d527661040b8901527f625367794d4441734d7a41774b537767494342795957356b6232306f4d6a417761042b8901528561044b8901528461046b8901527f615746755a32786c4b484a68626d5276625367794d4441734d7a41774b53776761048b8901527f636d46755a4739744b4451774d4377314d4441704c4342795957356b6232306f6104ab8901527f4d6a41774c444d774d436b7349484a68626d5276625367794d4441734d7a41779450846104cb890152806104eb890152507f6232306f4d6a41774c444d774d436b704f776f674943416764484a705957356e61050b8801527f6247556f636d46755a4739744b4449774d43777a4d4441704c4342795957356b61052b8801528261054b8801528161056b8801528561058b880152806105ab8801525050507f5a4739744b4451774d4377314d4441704c4342795957356b6232306f4d6a41776105cb850152816105eb8501527f636d46755a4739744b4449774d43777a4d4441704c4342795957356b6232306f61060b8501528061062b8501525050507f4b536b374369416749434230636d6c68626d64735a5368795957356b6232306f61064b8201527f4d5441774b537767636d46755a4739744b4449774d43777a4d4441704c43427961066b8201527f5957356b6232306f4d6a41774c444d774d436b7349434167636d46755a47397461068b8201527f4b4449774d43777a4d4441704c4342795957356b6232306f4d6a41774c444d776106ab8201527f4d436b7349484a68626d5276625367794d4441734d7a41774b536b37436941676106cb8201527f4943426d615778305a58496f5355355752564a554b516f674948304b4943426d6106eb8201527f615778305a58496f5355355752564a554b516f674948304b66516f4b5a6e567561070b8201527f593352706232346763335268636968344c4342354c43427a4b58734b4943426d61072b8201527f6233496f646d467949476b67505341774f794270494477674e5473676153737261074b8201527f4b58734b49434167494849675053416f4b476b724d536b674b6941314d436b6761076b8201527f4c5342795957356b6232306f4d6a5531494330674b476b714e5441704b516f6761078b8201527f494341675a7941394943676f615373784b534171494455774b53417449484a686107ab8201527f626d5276625367794e5455674c53416f61536f314d436b7043694167494342696107cb8201527f494430674b4368704b7a457049436f674e54417049433067636d46755a4739746107eb8201527f4b4449314e534174494368704b6a55774b536b4b4943416749475a706247776f61080b8201527f6369786e4c4749704f776f4b494341674948686665694139494867674c53416f61082b8201527f637938794b516f6749434167654639764944306765463936494373674b484d7661084b8201527f4e436b4b494341674948686664434139494867674c53416f637938304b516f6761086b8201527f494341676546393061434139494867674b79416f637938304b516f674943416761088b8201527f6546396d61534139494867674b79416f637938794b516f67494341676546396d6108ab8201527f62794139494868665a6d6b674c53416f637938304b516f4b4943416749486c666108cb8201527f6569413949486b674c53416f637938794b516f674943416765563976494430676108eb8201527f65563936494373674b484d764e436b4b4943416749486c666443413949486b6761090b8201527f4c53416f637938304b516f6749434167655639306143413949486b674b79416f61092b8201527f637938304b516f67494341676556396d6153413949486b674b79416f6379387961094b8201527f4b516f67494341676556396d6279413949486c665a6d6b674c53416f6379383061096b8201527f4b516f4b4943416749485279615746755a32786c4b484a68626d52766253683461098b8201527f58325a764c43423458325a704b537767636d46755a4739744b486c665a6d38736109ab8201527f49486c665a6d6b704c4342795957356b6232306f654639304c486866644767706109cb8201527f4c4342795957356b6232306f655639304c486c66644767704c4342795957356b6109eb8201527f6232306f654639304c486866644767704c4342795957356b6232306f65563930610a0b8201527f4c486c66644767704b54734b494341674943416764484a705957356e6247556f610a2b8201527f636d46755a4739744b48686665697767654639764b537767636d46755a473974610a4b8201527f4b486c6665697767655639764b537767636d46755a4739744b48686664437834610a6b8201527f5833526f4b537767636d46755a4739744b486c66644378355833526f4b537767610a8b8201527f636d46755a4739744b486866644378345833526f4b537767636d46755a473974610aab8201527f4b486c66644378355833526f4b536b3743694167494341674948527961574675610acb8201527f5a32786c4b484a68626d52766253683458325a764c43423458325a704b537767610aeb8201527f636d46755a4739744b486c6665697767655639764b537767636d46755a473974610b0b8201527f4b486866644378345833526f4b537767636d46755a4739744b486c6664437835610b2b8201527f5833526f4b537767636d46755a4739744b486866644378345833526f4b537767610b4b8201527f636d46755a4739744b486c66644378355833526f4b536b374369416749434167610b6b8201527f49485279615746755a32786c4b484a68626d52766253683458336f7349486866610b8b8201527f62796b7349484a68626d52766253683558325a764c486c665a6d6b704c434279610bab8201527f5957356b6232306f654639304c486866644767704c4342795957356b6232306f610bcb8201527f655639304c486c66644767704c4342795957356b6232306f654639304c486866610beb8201527f644767704c4342795957356b6232306f655639304c486c66644767704b54734b610c0b8201527f4943416749416f67494341675a6d6c73644756794b456c4f566b565356436b4b610c2b8201527f49434239436e303d223e3c2f7363726970743e00000000000000000000000000610c4b820152610c5e8101915050949350505050565b7f6c65742073656564203d20000000000000000000000000000000000000000000815260008351612cd181600b8501602088016109bd565b835190830190612ce881600b8401602088016109bd565b01600b01949350505050565b7f3c736372697074207372633d22646174613a746578742f6a617661736372697081527f743b6261736536342c000000000000000000000000000000000000000000000060208201526000602982018351612d538183602088016109bd565b01939250505056fe3c737667206865696768743d22353030222077696474683d223530302220786d6c6e733d22687474703a2f2f7777772e77332e6f72672f323030302f737667223e3c7265637420783d22302220793d2230222077696474683d2235303022206865696768743d22353030222f3e3c737667206865696768743d22353030222077696474683d223530302220786d6c6e733d22687474703a2f2f7777772e77332e6f72672f323030302f737667223ea164736f6c6343000814000a226465736372697074696f6e223a22496e206120666172206177617920706172616c6c656c20756e69766572736520616e20616476616e63656420636976696c697a6174696f6e206275696c74206120636f6d70757465722061726f756e642061207374617220616e64206573636170656420696e746f20612073696d756c61746564207265616c6974792e20416674657220736f6d6520696d6d656173757261626c6520616d6f756e74206f662074696d65207468657365206661637473207765726520666f72676f7474656e20616e6420616674657220616e6f7468657220696d6d656173757261626c6520616d6f756e74206f662074696d652074686174207374617220626567616e20746f206469652e204576656e20736f2c206c69666520496e7369646520746869732073696d756c6174696f6e2070726f677265737365642c20616e64206f6e206f6e6520706c616e657420736f6d65206f662074686174206c6966652070726f6772657373656420656e6f75676820746f20666f726d206120676f7665726e6d656e742e20596f752061726520746865206e6577206d656d626572206f662061206d7973746572696f75732070726f6a65637420756e646572206120736563726574206167656e6379206f66207468697320676f7665726e6d656e74207265736561726368696e672074686520656c656d656e74617279207061727469636c65732074686174206d616b6520757020796f757220756e6976657273652e222c",
    "linkReferences": {}
  },
  "methodIdentifiers": {
    "balanceOf(address,uint256)": "00fdd58e",
    "balanceOfBatch(address[],uint256[])": "4e1273f4",
    "isApprovedForAll(address,address)": "e985e9c5",
    "mint(address,uint256)": "40c10f19",
    "name()": "06fdde03",
    "safeBatchTransferFrom(address,address,uint256[],uint256[],bytes)": "2eb2c2d6",
    "safeTransferFrom(address,address,uint256,uint256,bytes)": "f242432a",
    "setApprovalForAll(address,bool)": "a22cb465",
    "supportsInterface(bytes4)": "01ffc9a7",
    "symbol()": "95d89b41",
    "uri(uint256)": "0e89341c"
  },
  "id": 38
}